{
  "contractName": "PancakeRouter01",
  "abi": [
    {
      "inputs": [
        {
          "internalType": "address",
          "name": "_factory",
          "type": "address"
        },
        {
          "internalType": "address",
          "name": "_WKLAY",
          "type": "address"
        }
      ],
      "stateMutability": "nonpayable",
      "type": "constructor"
    },
    {
      "inputs": [],
      "name": "WKLAY",
      "outputs": [
        {
          "internalType": "address",
          "name": "",
          "type": "address"
        }
      ],
      "stateMutability": "view",
      "type": "function",
      "constant": true
    },
    {
      "inputs": [],
      "name": "factory",
      "outputs": [
        {
          "internalType": "address",
          "name": "",
          "type": "address"
        }
      ],
      "stateMutability": "view",
      "type": "function",
      "constant": true
    },
    {
      "stateMutability": "payable",
      "type": "receive",
      "payable": true
    },
    {
      "inputs": [
        {
          "internalType": "address",
          "name": "tokenA",
          "type": "address"
        },
        {
          "internalType": "address",
          "name": "tokenB",
          "type": "address"
        },
        {
          "internalType": "uint256",
          "name": "amountADesired",
          "type": "uint256"
        },
        {
          "internalType": "uint256",
          "name": "amountBDesired",
          "type": "uint256"
        },
        {
          "internalType": "uint256",
          "name": "amountAMin",
          "type": "uint256"
        },
        {
          "internalType": "uint256",
          "name": "amountBMin",
          "type": "uint256"
        },
        {
          "internalType": "address",
          "name": "to",
          "type": "address"
        },
        {
          "internalType": "uint256",
          "name": "deadline",
          "type": "uint256"
        }
      ],
      "name": "addLiquidity",
      "outputs": [
        {
          "internalType": "uint256",
          "name": "amountA",
          "type": "uint256"
        },
        {
          "internalType": "uint256",
          "name": "amountB",
          "type": "uint256"
        },
        {
          "internalType": "uint256",
          "name": "liquidity",
          "type": "uint256"
        }
      ],
      "stateMutability": "nonpayable",
      "type": "function"
    },
    {
      "inputs": [
        {
          "internalType": "address",
          "name": "token",
          "type": "address"
        },
        {
          "internalType": "uint256",
          "name": "amountTokenDesired",
          "type": "uint256"
        },
        {
          "internalType": "uint256",
          "name": "amountTokenMin",
          "type": "uint256"
        },
        {
          "internalType": "uint256",
          "name": "amountKLAYMin",
          "type": "uint256"
        },
        {
          "internalType": "address",
          "name": "to",
          "type": "address"
        },
        {
          "internalType": "uint256",
          "name": "deadline",
          "type": "uint256"
        }
      ],
      "name": "addLiquidityKLAY",
      "outputs": [
        {
          "internalType": "uint256",
          "name": "amountToken",
          "type": "uint256"
        },
        {
          "internalType": "uint256",
          "name": "amountKLAY",
          "type": "uint256"
        },
        {
          "internalType": "uint256",
          "name": "liquidity",
          "type": "uint256"
        }
      ],
      "stateMutability": "payable",
      "type": "function",
      "payable": true
    },
    {
      "inputs": [
        {
          "internalType": "address",
          "name": "tokenA",
          "type": "address"
        },
        {
          "internalType": "address",
          "name": "tokenB",
          "type": "address"
        },
        {
          "internalType": "uint256",
          "name": "liquidity",
          "type": "uint256"
        },
        {
          "internalType": "uint256",
          "name": "amountAMin",
          "type": "uint256"
        },
        {
          "internalType": "uint256",
          "name": "amountBMin",
          "type": "uint256"
        },
        {
          "internalType": "address",
          "name": "to",
          "type": "address"
        },
        {
          "internalType": "uint256",
          "name": "deadline",
          "type": "uint256"
        }
      ],
      "name": "removeLiquidity",
      "outputs": [
        {
          "internalType": "uint256",
          "name": "amountA",
          "type": "uint256"
        },
        {
          "internalType": "uint256",
          "name": "amountB",
          "type": "uint256"
        }
      ],
      "stateMutability": "nonpayable",
      "type": "function"
    },
    {
      "inputs": [
        {
          "internalType": "address",
          "name": "token",
          "type": "address"
        },
        {
          "internalType": "uint256",
          "name": "liquidity",
          "type": "uint256"
        },
        {
          "internalType": "uint256",
          "name": "amountTokenMin",
          "type": "uint256"
        },
        {
          "internalType": "uint256",
          "name": "amountKLAYMin",
          "type": "uint256"
        },
        {
          "internalType": "address",
          "name": "to",
          "type": "address"
        },
        {
          "internalType": "uint256",
          "name": "deadline",
          "type": "uint256"
        }
      ],
      "name": "removeLiquidityKLAY",
      "outputs": [
        {
          "internalType": "uint256",
          "name": "amountToken",
          "type": "uint256"
        },
        {
          "internalType": "uint256",
          "name": "amountKLAY",
          "type": "uint256"
        }
      ],
      "stateMutability": "nonpayable",
      "type": "function"
    },
    {
      "inputs": [
        {
          "internalType": "address",
          "name": "tokenA",
          "type": "address"
        },
        {
          "internalType": "address",
          "name": "tokenB",
          "type": "address"
        },
        {
          "internalType": "uint256",
          "name": "liquidity",
          "type": "uint256"
        },
        {
          "internalType": "uint256",
          "name": "amountAMin",
          "type": "uint256"
        },
        {
          "internalType": "uint256",
          "name": "amountBMin",
          "type": "uint256"
        },
        {
          "internalType": "address",
          "name": "to",
          "type": "address"
        },
        {
          "internalType": "uint256",
          "name": "deadline",
          "type": "uint256"
        },
        {
          "internalType": "bool",
          "name": "approveMax",
          "type": "bool"
        },
        {
          "internalType": "uint8",
          "name": "v",
          "type": "uint8"
        },
        {
          "internalType": "bytes32",
          "name": "r",
          "type": "bytes32"
        },
        {
          "internalType": "bytes32",
          "name": "s",
          "type": "bytes32"
        }
      ],
      "name": "removeLiquidityWithPermit",
      "outputs": [
        {
          "internalType": "uint256",
          "name": "amountA",
          "type": "uint256"
        },
        {
          "internalType": "uint256",
          "name": "amountB",
          "type": "uint256"
        }
      ],
      "stateMutability": "nonpayable",
      "type": "function"
    },
    {
      "inputs": [
        {
          "internalType": "address",
          "name": "token",
          "type": "address"
        },
        {
          "internalType": "uint256",
          "name": "liquidity",
          "type": "uint256"
        },
        {
          "internalType": "uint256",
          "name": "amountTokenMin",
          "type": "uint256"
        },
        {
          "internalType": "uint256",
          "name": "amountKLAYMin",
          "type": "uint256"
        },
        {
          "internalType": "address",
          "name": "to",
          "type": "address"
        },
        {
          "internalType": "uint256",
          "name": "deadline",
          "type": "uint256"
        },
        {
          "internalType": "bool",
          "name": "approveMax",
          "type": "bool"
        },
        {
          "internalType": "uint8",
          "name": "v",
          "type": "uint8"
        },
        {
          "internalType": "bytes32",
          "name": "r",
          "type": "bytes32"
        },
        {
          "internalType": "bytes32",
          "name": "s",
          "type": "bytes32"
        }
      ],
      "name": "removeLiquidityKLAYWithPermit",
      "outputs": [
        {
          "internalType": "uint256",
          "name": "amountToken",
          "type": "uint256"
        },
        {
          "internalType": "uint256",
          "name": "amountKLAY",
          "type": "uint256"
        }
      ],
      "stateMutability": "nonpayable",
      "type": "function"
    },
    {
      "inputs": [
        {
          "internalType": "uint256",
          "name": "amountIn",
          "type": "uint256"
        },
        {
          "internalType": "uint256",
          "name": "amountOutMin",
          "type": "uint256"
        },
        {
          "internalType": "address[]",
          "name": "path",
          "type": "address[]"
        },
        {
          "internalType": "address",
          "name": "to",
          "type": "address"
        },
        {
          "internalType": "uint256",
          "name": "deadline",
          "type": "uint256"
        }
      ],
      "name": "swapExactTokensForTokens",
      "outputs": [
        {
          "internalType": "uint256[]",
          "name": "amounts",
          "type": "uint256[]"
        }
      ],
      "stateMutability": "nonpayable",
      "type": "function"
    },
    {
      "inputs": [
        {
          "internalType": "uint256",
          "name": "amountOut",
          "type": "uint256"
        },
        {
          "internalType": "uint256",
          "name": "amountInMax",
          "type": "uint256"
        },
        {
          "internalType": "address[]",
          "name": "path",
          "type": "address[]"
        },
        {
          "internalType": "address",
          "name": "to",
          "type": "address"
        },
        {
          "internalType": "uint256",
          "name": "deadline",
          "type": "uint256"
        }
      ],
      "name": "swapTokensForExactTokens",
      "outputs": [
        {
          "internalType": "uint256[]",
          "name": "amounts",
          "type": "uint256[]"
        }
      ],
      "stateMutability": "nonpayable",
      "type": "function"
    },
    {
      "inputs": [
        {
          "internalType": "uint256",
          "name": "amountOutMin",
          "type": "uint256"
        },
        {
          "internalType": "address[]",
          "name": "path",
          "type": "address[]"
        },
        {
          "internalType": "address",
          "name": "to",
          "type": "address"
        },
        {
          "internalType": "uint256",
          "name": "deadline",
          "type": "uint256"
        }
      ],
      "name": "swapExactKLAYForTokens",
      "outputs": [
        {
          "internalType": "uint256[]",
          "name": "amounts",
          "type": "uint256[]"
        }
      ],
      "stateMutability": "payable",
      "type": "function",
      "payable": true
    },
    {
      "inputs": [
        {
          "internalType": "uint256",
          "name": "amountOut",
          "type": "uint256"
        },
        {
          "internalType": "uint256",
          "name": "amountInMax",
          "type": "uint256"
        },
        {
          "internalType": "address[]",
          "name": "path",
          "type": "address[]"
        },
        {
          "internalType": "address",
          "name": "to",
          "type": "address"
        },
        {
          "internalType": "uint256",
          "name": "deadline",
          "type": "uint256"
        }
      ],
      "name": "swapTokensForExactKLAY",
      "outputs": [
        {
          "internalType": "uint256[]",
          "name": "amounts",
          "type": "uint256[]"
        }
      ],
      "stateMutability": "nonpayable",
      "type": "function"
    },
    {
      "inputs": [
        {
          "internalType": "uint256",
          "name": "amountIn",
          "type": "uint256"
        },
        {
          "internalType": "uint256",
          "name": "amountOutMin",
          "type": "uint256"
        },
        {
          "internalType": "address[]",
          "name": "path",
          "type": "address[]"
        },
        {
          "internalType": "address",
          "name": "to",
          "type": "address"
        },
        {
          "internalType": "uint256",
          "name": "deadline",
          "type": "uint256"
        }
      ],
      "name": "swapExactTokensForKLAY",
      "outputs": [
        {
          "internalType": "uint256[]",
          "name": "amounts",
          "type": "uint256[]"
        }
      ],
      "stateMutability": "nonpayable",
      "type": "function"
    },
    {
      "inputs": [
        {
          "internalType": "uint256",
          "name": "amountOut",
          "type": "uint256"
        },
        {
          "internalType": "address[]",
          "name": "path",
          "type": "address[]"
        },
        {
          "internalType": "address",
          "name": "to",
          "type": "address"
        },
        {
          "internalType": "uint256",
          "name": "deadline",
          "type": "uint256"
        }
      ],
      "name": "swapKLAYForExactTokens",
      "outputs": [
        {
          "internalType": "uint256[]",
          "name": "amounts",
          "type": "uint256[]"
        }
      ],
      "stateMutability": "payable",
      "type": "function",
      "payable": true
    },
    {
      "inputs": [
        {
          "internalType": "uint256",
          "name": "amountA",
          "type": "uint256"
        },
        {
          "internalType": "uint256",
          "name": "reserveA",
          "type": "uint256"
        },
        {
          "internalType": "uint256",
          "name": "reserveB",
          "type": "uint256"
        }
      ],
      "name": "quote",
      "outputs": [
        {
          "internalType": "uint256",
          "name": "amountB",
          "type": "uint256"
        }
      ],
      "stateMutability": "pure",
      "type": "function",
      "constant": true
    },
    {
      "inputs": [
        {
          "internalType": "uint256",
          "name": "amountIn",
          "type": "uint256"
        },
        {
          "internalType": "uint256",
          "name": "reserveIn",
          "type": "uint256"
        },
        {
          "internalType": "uint256",
          "name": "reserveOut",
          "type": "uint256"
        }
      ],
      "name": "getAmountOut",
      "outputs": [
        {
          "internalType": "uint256",
          "name": "amountOut",
          "type": "uint256"
        }
      ],
      "stateMutability": "pure",
      "type": "function",
      "constant": true
    },
    {
      "inputs": [
        {
          "internalType": "uint256",
          "name": "amountOut",
          "type": "uint256"
        },
        {
          "internalType": "uint256",
          "name": "reserveIn",
          "type": "uint256"
        },
        {
          "internalType": "uint256",
          "name": "reserveOut",
          "type": "uint256"
        }
      ],
      "name": "getAmountIn",
      "outputs": [
        {
          "internalType": "uint256",
          "name": "amountIn",
          "type": "uint256"
        }
      ],
      "stateMutability": "pure",
      "type": "function",
      "constant": true
    },
    {
      "inputs": [
        {
          "internalType": "uint256",
          "name": "amountIn",
          "type": "uint256"
        },
        {
          "internalType": "address[]",
          "name": "path",
          "type": "address[]"
        }
      ],
      "name": "getAmountsOut",
      "outputs": [
        {
          "internalType": "uint256[]",
          "name": "amounts",
          "type": "uint256[]"
        }
      ],
      "stateMutability": "view",
      "type": "function",
      "constant": true
    },
    {
      "inputs": [
        {
          "internalType": "uint256",
          "name": "amountOut",
          "type": "uint256"
        },
        {
          "internalType": "address[]",
          "name": "path",
          "type": "address[]"
        }
      ],
      "name": "getAmountsIn",
      "outputs": [
        {
          "internalType": "uint256[]",
          "name": "amounts",
          "type": "uint256[]"
        }
      ],
      "stateMutability": "view",
      "type": "function",
      "constant": true
    }
  ],
  "bytecode": "0x60c060405234801561001057600080fd5b506040516137173803806137178339818101604052604081101561003357600080fd5b5080516020909101516001600160601b0319606092831b8116608052911b1660a05260805160601c60a05160601c6135db61013c600039806101585280610a205280610c4f5280610cc45280610e1c5280610ea4528061123c5280611277528061136452806115065280611711528061186652806118ee5280611aaf5280611c645280611cba5280611cee5280611d625250806109fe5280610b245280610b5d5280610d695280610ed6528061106052806111375280611404528061161052806117b652806119205280611b4f5280611c985280611f015280612112528061213b52806121cf528061279552806127d85280612ddb5280612e945280612f4752506135db6000f3fe6080604052600436106101485760003560e01c806385f8c259116100c0578063b216fe9b11610074578063c45a015511610059578063c45a0155146108c6578063d06ca61f146108db578063e8e337001461099257610181565b8063b216fe9b14610805578063baa2abde1461086957610181565b806390133605116100a557806390133605146106b157806398de2cd214610737578063ad615dec146107cf57610181565b806385f8c259146102125780638803dbee1461061957610181565b8063249502d71161011757806338ed1739116100fc57806338ed1739146104965780633c187a6b1461052e5780636fe5f23f1461058157610181565b8063249502d7146103df5780633022d3a81461041057610181565b80630158a31314610186578063054d50d4146102125780631f00ca741461025a5780632195995c1461036157610181565b3661018157336001600160a01b037f0000000000000000000000000000000000000000000000000000000000000000161461017f57fe5b005b600080fd5b34801561019257600080fd5b506101f960048036036101408110156101aa57600080fd5b506001600160a01b0381358116916020810135916040820135916060810135916080820135169060a08101359060c081013515159060ff60e082013516906101008101359061012001356109f4565b6040805192835260208301919091528051918290030190f35b34801561021e57600080fd5b506102486004803603606081101561023557600080fd5b5080359060208101359060400135610b08565b60408051918252519081900360200190f35b34801561026657600080fd5b506103116004803603604081101561027d57600080fd5b8135919081019060408101602082013564010000000081111561029f57600080fd5b8201836020820111156102b157600080fd5b803590602001918460208302840111640100000000831117156102d357600080fd5b919080806020026020016040519081016040528093929190818152602001838360200280828437600092019190915250929550610b1d945050505050565b60408051602080825283518183015283519192839290830191858101910280838360005b8381101561034d578181015183820152602001610335565b505050509050019250505060405180910390f35b34801561036d57600080fd5b506101f9600480360361016081101561038557600080fd5b506001600160a01b038135811691602081013582169160408201359160608101359160808201359160a08101359091169060c08101359060e081013515159060ff6101008201351690610120810135906101400135610b53565b3480156103eb57600080fd5b506103f4610c4d565b604080516001600160a01b039092168252519081900360200190f35b6103116004803603608081101561042657600080fd5b8135919081019060408101602082013564010000000081111561044857600080fd5b82018360208201111561045a57600080fd5b8035906020019184602083028401116401000000008311171561047c57600080fd5b91935091506001600160a01b038135169060200135610c71565b3480156104a257600080fd5b50610311600480360360a08110156104b957600080fd5b8135916020810135918101906060810160408201356401000000008111156104e057600080fd5b8201836020820111156104f257600080fd5b8035906020019184602083028401116401000000008311171561051457600080fd5b91935091506001600160a01b03813516906020013561100a565b34801561053a57600080fd5b506101f9600480360360c081101561055157600080fd5b506001600160a01b0381358116916020810135916040820135916060810135916080820135169060a001356111e4565b34801561058d57600080fd5b50610311600480360360a08110156105a457600080fd5b8135916020810135918101906060810160408201356401000000008111156105cb57600080fd5b8201836020820111156105dd57600080fd5b803590602001918460208302840111640100000000831117156105ff57600080fd5b91935091506001600160a01b038135169060200135611309565b34801561062557600080fd5b50610311600480360360a081101561063c57600080fd5b81359160208101359181019060608101604082013564010000000081111561066357600080fd5b82018360208201111561067557600080fd5b8035906020019184602083028401116401000000008311171561069757600080fd5b91935091506001600160a01b0381351690602001356115ba565b610311600480360360808110156106c757600080fd5b813591908101906040810160208201356401000000008111156106e957600080fd5b8201836020820111156106fb57600080fd5b8035906020019184602083028401116401000000008311171561071d57600080fd5b91935091506001600160a01b0381351690602001356116be565b34801561074357600080fd5b50610311600480360360a081101561075a57600080fd5b81359160208101359181019060608101604082013564010000000081111561078157600080fd5b82018360208201111561079357600080fd5b803590602001918460208302840111640100000000831117156107b557600080fd5b91935091506001600160a01b038135169060200135611a54565b3480156107db57600080fd5b50610248600480360360608110156107f257600080fd5b5080359060208101359060400135611bfd565b61084b600480360360c081101561081b57600080fd5b506001600160a01b0381358116916020810135916040820135916060810135916080820135169060a00135611c0a565b60408051938452602084019290925282820152519081900360600190f35b34801561087557600080fd5b506101f9600480360360e081101561088c57600080fd5b506001600160a01b038135811691602081013582169160408201359160608101359160808201359160a08101359091169060c00135611ea8565b3480156108d257600080fd5b506103f4612110565b3480156108e757600080fd5b50610311600480360360408110156108fe57600080fd5b8135919081019060408101602082013564010000000081111561092057600080fd5b82018360208201111561093257600080fd5b8035906020019184602083028401116401000000008311171561095457600080fd5b919080806020026020016040519081016040528093929190818152602001838360200280828437600092019190915250929550612134945050505050565b34801561099e57600080fd5b5061084b60048036036101008110156109b657600080fd5b506001600160a01b038135811691602081013582169160408201359160608101359160808201359160a08101359160c0820135169060e00135612161565b6000806000610a447f00000000000000000000000000000000000000000000000000000000000000008e7f000000000000000000000000000000000000000000000000000000000000000061229f565b9050600087610a53578c610a57565b6000195b6040805163d505accf60e01b815233600482015230602482015260448101839052606481018c905260ff8a16608482015260a4810189905260c4810188905290519192506001600160a01b0384169163d505accf9160e48082019260009290919082900301818387803b158015610acd57600080fd5b505af1158015610ae1573d6000803e3d6000fd5b50505050610af38e8e8e8e8e8e6111e4565b909f909e509c50505050505050505050505050565b6000610b1584848461238a565b949350505050565b6060610b4a7f00000000000000000000000000000000000000000000000000000000000000008484612462565b90505b92915050565b6000806000610b837f00000000000000000000000000000000000000000000000000000000000000008f8f61229f565b9050600087610b92578c610b96565b6000195b6040805163d505accf60e01b815233600482015230602482015260448101839052606481018c905260ff8a16608482015260a4810189905260c4810188905290519192506001600160a01b0384169163d505accf9160e48082019260009290919082900301818387803b158015610c0c57600080fd5b505af1158015610c20573d6000803e3d6000fd5b50505050610c338f8f8f8f8f8f8f611ea8565b809450819550505050509b509b9950505050505050505050565b7f000000000000000000000000000000000000000000000000000000000000000081565b60608142811015610cc2576040805162461bcd60e51b815260206004820152601660248201527514185b98d85ad9549bdd5d195c8e881156141254915160521b604482015290519081900360640190fd5b7f00000000000000000000000000000000000000000000000000000000000000006001600160a01b031686866000818110610cf957fe5b905060200201356001600160a01b03166001600160a01b031614610d64576040805162461bcd60e51b815260206004820152601b60248201527f50616e63616b65526f757465723a20494e56414c49445f504154480000000000604482015290519081900360640190fd5b610dc27f0000000000000000000000000000000000000000000000000000000000000000348888808060200260200160405190810160405280939291908181526020018383602002808284376000920191909152506125af92505050565b91508682600184510381518110610dd557fe5b60200260200101511015610e1a5760405162461bcd60e51b815260040180806020018281038252602981526020018061345c6029913960400191505060405180910390fd5b7f00000000000000000000000000000000000000000000000000000000000000006001600160a01b031663d0e30db083600081518110610e5657fe5b60200260200101516040518263ffffffff1660e01b81526004016000604051808303818588803b158015610e8957600080fd5b505af1158015610e9d573d6000803e3d6000fd5b50505050507f00000000000000000000000000000000000000000000000000000000000000006001600160a01b031663a9059cbb610f347f000000000000000000000000000000000000000000000000000000000000000089896000818110610f0257fe5b905060200201356001600160a01b03168a8a6001818110610f1f57fe5b905060200201356001600160a01b031661229f565b84600081518110610f4157fe5b60200260200101516040518363ffffffff1660e01b815260040180836001600160a01b0316815260200182815260200192505050602060405180830381600087803b158015610f8f57600080fd5b505af1158015610fa3573d6000803e3d6000fd5b505050506040513d6020811015610fb957600080fd5b5051610fc157fe5b611000828787808060200260200160405190810160405280939291908181526020018383602002808284376000920191909152508992506126e6915050565b5095945050505050565b6060814281101561105b576040805162461bcd60e51b815260206004820152601660248201527514185b98d85ad9549bdd5d195c8e881156141254915160521b604482015290519081900360640190fd5b6110b97f0000000000000000000000000000000000000000000000000000000000000000898888808060200260200160405190810160405280939291908181526020018383602002808284376000920191909152506125af92505050565b915086826001845103815181106110cc57fe5b602002602001015110156111115760405162461bcd60e51b815260040180806020018281038252602981526020018061345c6029913960400191505060405180910390fd5b61119a8686600081811061112157fe5b905060200201356001600160a01b0316336111807f00000000000000000000000000000000000000000000000000000000000000008a8a600081811061116357fe5b905060200201356001600160a01b03168b8b6001818110610f1f57fe5b8560008151811061118d57fe5b6020026020010151612923565b6111d9828787808060200260200160405190810160405280939291908181526020018383602002808284376000920191909152508992506126e6915050565b509695505050505050565b6000808242811015611236576040805162461bcd60e51b815260206004820152601660248201527514185b98d85ad9549bdd5d195c8e881156141254915160521b604482015290519081900360640190fd5b611265897f00000000000000000000000000000000000000000000000000000000000000008a8a8a308a611ea8565b9093509150611275898685612a95565b7f00000000000000000000000000000000000000000000000000000000000000006001600160a01b0316632e1a7d4d836040518263ffffffff1660e01b815260040180828152602001915050600060405180830381600087803b1580156112db57600080fd5b505af11580156112ef573d6000803e3d6000fd5b505050506112fd8583612c2d565b50965096945050505050565b6060814281101561135a576040805162461bcd60e51b815260206004820152601660248201527514185b98d85ad9549bdd5d195c8e881156141254915160521b604482015290519081900360640190fd5b6001600160a01b037f0000000000000000000000000000000000000000000000000000000000000000168686600019810181811061139457fe5b905060200201356001600160a01b03166001600160a01b0316146113ff576040805162461bcd60e51b815260206004820152601b60248201527f50616e63616b65526f757465723a20494e56414c49445f504154480000000000604482015290519081900360640190fd5b61145d7f0000000000000000000000000000000000000000000000000000000000000000898888808060200260200160405190810160405280939291908181526020018383602002808284376000920191909152506125af92505050565b9150868260018451038151811061147057fe5b602002602001015110156114b55760405162461bcd60e51b815260040180806020018281038252602981526020018061345c6029913960400191505060405180910390fd5b6114c58686600081811061112157fe5b611504828787808060200260200160405190810160405280939291908181526020018383602002808284376000920191909152503092506126e6915050565b7f00000000000000000000000000000000000000000000000000000000000000006001600160a01b0316632e1a7d4d8360018551038151811061154357fe5b60200260200101516040518263ffffffff1660e01b815260040180828152602001915050600060405180830381600087803b15801561158157600080fd5b505af1158015611595573d6000803e3d6000fd5b505050506111d984836001855103815181106115ad57fe5b6020026020010151612c2d565b6060814281101561160b576040805162461bcd60e51b815260206004820152601660248201527514185b98d85ad9549bdd5d195c8e881156141254915160521b604482015290519081900360640190fd5b6116697f00000000000000000000000000000000000000000000000000000000000000008988888080602002602001604051908101604052809392919081815260200183836020028082843760009201919091525061246292505050565b9150868260008151811061167957fe5b602002602001015111156111115760405162461bcd60e51b81526004018080602001828103825260258152602001806135136025913960400191505060405180910390fd5b6060814281101561170f576040805162461bcd60e51b815260206004820152601660248201527514185b98d85ad9549bdd5d195c8e881156141254915160521b604482015290519081900360640190fd5b7f00000000000000000000000000000000000000000000000000000000000000006001600160a01b03168686600081811061174657fe5b905060200201356001600160a01b03166001600160a01b0316146117b1576040805162461bcd60e51b815260206004820152601b60248201527f50616e63616b65526f757465723a20494e56414c49445f504154480000000000604482015290519081900360640190fd5b61180f7f00000000000000000000000000000000000000000000000000000000000000008888888080602002602001604051908101604052809392919081815260200183836020028082843760009201919091525061246292505050565b9150348260008151811061181f57fe5b602002602001015111156118645760405162461bcd60e51b81526004018080602001828103825260258152602001806135136025913960400191505060405180910390fd5b7f00000000000000000000000000000000000000000000000000000000000000006001600160a01b031663d0e30db0836000815181106118a057fe5b60200260200101516040518263ffffffff1660e01b81526004016000604051808303818588803b1580156118d357600080fd5b505af11580156118e7573d6000803e3d6000fd5b50505050507f00000000000000000000000000000000000000000000000000000000000000006001600160a01b031663a9059cbb61194c7f000000000000000000000000000000000000000000000000000000000000000089896000818110610f0257fe5b8460008151811061195957fe5b60200260200101516040518363ffffffff1660e01b815260040180836001600160a01b0316815260200182815260200192505050602060405180830381600087803b1580156119a757600080fd5b505af11580156119bb573d6000803e3d6000fd5b505050506040513d60208110156119d157600080fd5b50516119d957fe5b611a18828787808060200260200160405190810160405280939291908181526020018383602002808284376000920191909152508992506126e6915050565b81600081518110611a2557fe5b6020026020010151341115611000576110003383600081518110611a4557fe5b60200260200101513403612c2d565b60608142811015611aa5576040805162461bcd60e51b815260206004820152601660248201527514185b98d85ad9549bdd5d195c8e881156141254915160521b604482015290519081900360640190fd5b6001600160a01b037f00000000000000000000000000000000000000000000000000000000000000001686866000198101818110611adf57fe5b905060200201356001600160a01b03166001600160a01b031614611b4a576040805162461bcd60e51b815260206004820152601b60248201527f50616e63616b65526f757465723a20494e56414c49445f504154480000000000604482015290519081900360640190fd5b611ba87f00000000000000000000000000000000000000000000000000000000000000008988888080602002602001604051908101604052809392919081815260200183836020028082843760009201919091525061246292505050565b91508682600081518110611bb857fe5b602002602001015111156114b55760405162461bcd60e51b81526004018080602001828103825260258152602001806135136025913960400191505060405180910390fd5b6000610b15848484612d25565b60008060008342811015611c5e576040805162461bcd60e51b815260206004820152601660248201527514185b98d85ad9549bdd5d195c8e881156141254915160521b604482015290519081900360640190fd5b611c8c8a7f00000000000000000000000000000000000000000000000000000000000000008b348c8c612dcb565b90945092506000611cde7f00000000000000000000000000000000000000000000000000000000000000008c7f000000000000000000000000000000000000000000000000000000000000000061229f565b9050611cec8b338388612923565b7f00000000000000000000000000000000000000000000000000000000000000006001600160a01b031663d0e30db0856040518263ffffffff1660e01b81526004016000604051808303818588803b158015611d4757600080fd5b505af1158015611d5b573d6000803e3d6000fd5b50505050507f00000000000000000000000000000000000000000000000000000000000000006001600160a01b031663a9059cbb82866040518363ffffffff1660e01b815260040180836001600160a01b0316815260200182815260200192505050602060405180830381600087803b158015611dd757600080fd5b505af1158015611deb573d6000803e3d6000fd5b505050506040513d6020811015611e0157600080fd5b5051611e0957fe5b806001600160a01b0316636a627842886040518263ffffffff1660e01b815260040180826001600160a01b03168152602001915050602060405180830381600087803b158015611e5857600080fd5b505af1158015611e6c573d6000803e3d6000fd5b505050506040513d6020811015611e8257600080fd5b5051925034841015611e9a57611e9a33853403612c2d565b505096509650969350505050565b6000808242811015611efa576040805162461bcd60e51b815260206004820152601660248201527514185b98d85ad9549bdd5d195c8e881156141254915160521b604482015290519081900360640190fd5b6000611f277f00000000000000000000000000000000000000000000000000000000000000008c8c61229f565b604080516323b872dd60e01b81523360048201526001600160a01b03831660248201819052604482018d9052915192935090916323b872dd916064808201926020929091908290030181600087803b158015611f8257600080fd5b505af1158015611f96573d6000803e3d6000fd5b505050506040513d6020811015611fac57600080fd5b5050604080517f89afcb440000000000000000000000000000000000000000000000000000000081526001600160a01b03888116600483015282516000938493928616926389afcb44926024808301939282900301818787803b15801561201257600080fd5b505af1158015612026573d6000803e3d6000fd5b505050506040513d604081101561203c57600080fd5b508051602090910151909250905060006120568e8e61305c565b509050806001600160a01b03168e6001600160a01b03161461207957818361207c565b82825b90975095508a8710156120c05760405162461bcd60e51b81526004018080602001828103825260248152602001806134a86024913960400191505060405180910390fd5b898610156120ff5760405162461bcd60e51b81526004018080602001828103825260248152602001806135826024913960400191505060405180910390fd5b505050505097509795505050505050565b7f000000000000000000000000000000000000000000000000000000000000000081565b6060610b4a7f000000000000000000000000000000000000000000000000000000000000000084846125af565b600080600083428110156121b5576040805162461bcd60e51b815260206004820152601660248201527514185b98d85ad9549bdd5d195c8e881156141254915160521b604482015290519081900360640190fd5b6121c38c8c8c8c8c8c612dcb565b909450925060006121f57f00000000000000000000000000000000000000000000000000000000000000008e8e61229f565b90506122038d338388612923565b61220f8c338387612923565b806001600160a01b0316636a627842886040518263ffffffff1660e01b815260040180826001600160a01b03168152602001915050602060405180830381600087803b15801561225e57600080fd5b505af1158015612272573d6000803e3d6000fd5b505050506040513d602081101561228857600080fd5b5051949d939c50939a509198505050505050505050565b60008060006122ae858561305c565b604080517fffffffffffffffffffffffffffffffffffffffff000000000000000000000000606094851b811660208084019190915293851b81166034830152825160288184030181526048830184528051908501207fff0000000000000000000000000000000000000000000000000000000000000060688401529a90941b9093166069840152607d8301989098527fe26f1edeb3c91a91d1eabfa8c3a718cd73b3b1abe7d4228919cb302be3985e52609d808401919091528851808403909101815260bd909201909752805196019590952095945050505050565b60008084116123ca5760405162461bcd60e51b81526004018080602001828103825260298152602001806134096029913960400191505060405180910390fd5b6000831180156123da5750600082115b6124155760405162461bcd60e51b81526004018080602001828103825260268152602001806135386026913960400191505060405180910390fd5b6000612423856103e661313a565b90506000612431828561313a565b9050600061244b83612445886103e861313a565b906131a6565b905080828161245657fe5b04979650505050505050565b60606002825110156124bb576040805162461bcd60e51b815260206004820152601c60248201527f50616e63616b654c6962726172793a20494e56414c49445f5041544800000000604482015290519081900360640190fd5b815167ffffffffffffffff811180156124d357600080fd5b506040519080825280602002602001820160405280156124fd578160200160208202803683370190505b509050828160018351038151811061251157fe5b60209081029190910101528151600019015b80156125a7576000806125608786600186038151811061253f57fe5b602002602001015187868151811061255357fe5b60200260200101516131fe565b9150915061258284848151811061257357fe5b602002602001015183836132d8565b84600185038151811061259157fe5b6020908102919091010152505060001901612523565b509392505050565b6060600282511015612608576040805162461bcd60e51b815260206004820152601c60248201527f50616e63616b654c6962726172793a20494e56414c49445f5041544800000000604482015290519081900360640190fd5b815167ffffffffffffffff8111801561262057600080fd5b5060405190808252806020026020018201604052801561264a578160200160208202803683370190505b509050828160008151811061265b57fe5b60200260200101818152505060005b60018351038110156125a7576000806126a08786858151811061268957fe5b602002602001015187866001018151811061255357fe5b915091506126c28484815181106126b357fe5b6020026020010151838361238a565b8484600101815181106126d157fe5b6020908102919091010152505060010161266a565b60005b600183510381101561291d5760008084838151811061270457fe5b602002602001015185846001018151811061271b57fe5b6020026020010151915091506000612733838361305c565b509050600087856001018151811061274757fe5b60200260200101519050600080836001600160a01b0316866001600160a01b03161461277557826000612779565b6000835b91509150600060028a5103881061279057886127d1565b6127d17f0000000000000000000000000000000000000000000000000000000000000000878c8b600201815181106127c457fe5b602002602001015161229f565b90506127fe7f0000000000000000000000000000000000000000000000000000000000000000888861229f565b6001600160a01b031663022c0d9f84848460006040519080825280601f01601f19166020018201604052801561283b576020820181803683370190505b506040518563ffffffff1660e01b815260040180858152602001848152602001836001600160a01b0316815260200180602001828103825283818151815260200191508051906020019080838360005b838110156128a357818101518382015260200161288b565b50505050905090810190601f1680156128d05780820380516001836020036101000a031916815260200191505b5095505050505050600060405180830381600087803b1580156128f257600080fd5b505af1158015612906573d6000803e3d6000fd5b5050600190990198506126e9975050505050505050565b50505050565b604080516001600160a01b0385811660248301528481166044830152606480830185905283518084039091018152608490920183526020820180517bffffffffffffffffffffffffffffffffffffffffffffffffffffffff166323b872dd60e01b17815292518251600094606094938a169392918291908083835b602083106129bd5780518252601f19909201916020918201910161299e565b6001836020036101000a0380198251168184511680821785525050505050509050019150506000604051808303816000865af19150503d8060008114612a1f576040519150601f19603f3d011682016040523d82523d6000602084013e612a24565b606091505b5091509150818015612a52575080511580612a525750808060200190516020811015612a4f57600080fd5b50515b612a8d5760405162461bcd60e51b815260040180806020018281038252602481526020018061355e6024913960400191505060405180910390fd5b505050505050565b604080516001600160a01b038481166024830152604480830185905283518084039091018152606490920183526020820180517bffffffffffffffffffffffffffffffffffffffffffffffffffffffff167fa9059cbb00000000000000000000000000000000000000000000000000000000178152925182516000946060949389169392918291908083835b60208310612b405780518252601f199092019160209182019101612b21565b6001836020036101000a0380198251168184511680821785525050505050509050019150506000604051808303816000865af19150503d8060008114612ba2576040519150601f19603f3d011682016040523d82523d6000602084013e612ba7565b606091505b5091509150818015612bd5575080511580612bd55750808060200190516020811015612bd257600080fd5b50515b612c26576040805162461bcd60e51b815260206004820152601f60248201527f5472616e7366657248656c7065723a205452414e534645525f4641494c454400604482015290519081900360640190fd5b5050505050565b604080516000808252602082019092526001600160a01b0384169083906040518082805190602001908083835b60208310612c795780518252601f199092019160209182019101612c5a565b6001836020036101000a03801982511681845116808217855250505050505090500191505060006040518083038185875af1925050503d8060008114612cdb576040519150601f19603f3d011682016040523d82523d6000602084013e612ce0565b606091505b5050905080612d205760405162461bcd60e51b81526004018080602001828103825260248152602001806134ef6024913960400191505060405180910390fd5b505050565b6000808411612d655760405162461bcd60e51b81526004018080602001828103825260238152602001806134cc6023913960400191505060405180910390fd5b600083118015612d755750600082115b612db05760405162461bcd60e51b81526004018080602001828103825260268152602001806135386026913960400191505060405180910390fd5b82612dbb858461313a565b81612dc257fe5b04949350505050565b60008060006001600160a01b03167f00000000000000000000000000000000000000000000000000000000000000006001600160a01b031663e6a439058a8a6040518363ffffffff1660e01b815260040180836001600160a01b03168152602001826001600160a01b031681526020019250505060206040518083038186803b158015612e5757600080fd5b505afa158015612e6b573d6000803e3d6000fd5b505050506040513d6020811015612e8157600080fd5b50516001600160a01b03161415612f3f577f00000000000000000000000000000000000000000000000000000000000000006001600160a01b031663c9c6539689896040518363ffffffff1660e01b815260040180836001600160a01b03168152602001826001600160a01b0316815260200192505050602060405180830381600087803b158015612f1257600080fd5b505af1158015612f26573d6000803e3d6000fd5b505050506040513d6020811015612f3c57600080fd5b50505b600080612f6d7f00000000000000000000000000000000000000000000000000000000000000008b8b6131fe565b91509150816000148015612f7f575080155b15612f8f5787935086925061304f565b6000612f9c898484612d25565b9050878111612fef5785811015612fe45760405162461bcd60e51b81526004018080602001828103825260248152602001806135826024913960400191505060405180910390fd5b88945092508261304d565b6000612ffc898486612d25565b90508981111561300857fe5b878110156130475760405162461bcd60e51b81526004018080602001828103825260248152602001806134a86024913960400191505060405180910390fd5b94508793505b505b5050965096945050505050565b600080826001600160a01b0316846001600160a01b031614156130b05760405162461bcd60e51b81526004018080602001828103825260238152602001806134856023913960400191505060405180910390fd5b826001600160a01b0316846001600160a01b0316106130d05782846130d3565b83835b90925090506001600160a01b038216613133576040805162461bcd60e51b815260206004820152601c60248201527f50616e63616b654c6962726172793a205a45524f5f4144445245535300000000604482015290519081900360640190fd5b9250929050565b60008115806131555750508082028282828161315257fe5b04145b610b4d576040805162461bcd60e51b815260206004820152601460248201527f64732d6d6174682d6d756c2d6f766572666c6f77000000000000000000000000604482015290519081900360640190fd5b80820182811015610b4d576040805162461bcd60e51b815260206004820152601460248201527f64732d6d6174682d6164642d6f766572666c6f77000000000000000000000000604482015290519081900360640190fd5b600080600061320d858561305c565b50905061321b86868661229f565b5060008061322a88888861229f565b6001600160a01b0316630902f1ac6040518163ffffffff1660e01b815260040160606040518083038186803b15801561326257600080fd5b505afa158015613276573d6000803e3d6000fd5b505050506040513d606081101561328c57600080fd5b5080516020909101516dffffffffffffffffffffffffffff91821693501690506001600160a01b03878116908416146132c65780826132c9565b81815b90999098509650505050505050565b60008084116133185760405162461bcd60e51b815260040180806020018281038252602a815260200180613432602a913960400191505060405180910390fd5b6000831180156133285750600082115b6133635760405162461bcd60e51b81526004018080602001828103825260268152602001806135386026913960400191505060405180910390fd5b600061337b6103e8613375868861313a565b9061313a565b9050600061338f6103e661337586896133b0565b90506133a6600182848161339f57fe5b04906131a6565b9695505050505050565b80820382811115610b4d576040805162461bcd60e51b815260206004820152601560248201527f64732d6d6174682d7375622d756e646572666c6f770000000000000000000000604482015290519081900360640190fdfe50616e63616b654c6962726172793a20494e53554646494349454e545f494e5055545f414d4f554e5450616e63616b654c6962726172793a20494e53554646494349454e545f4f55545055545f414d4f554e5450616e63616b65526f757465723a20494e53554646494349454e545f4f55545055545f414d4f554e5450616e63616b654c6962726172793a204944454e544943414c5f41444452455353455350616e63616b65526f757465723a20494e53554646494349454e545f415f414d4f554e5450616e63616b654c6962726172793a20494e53554646494349454e545f414d4f554e545472616e7366657248656c7065723a204b4c41595f5452414e534645525f4641494c454450616e63616b65526f757465723a204558434553534956455f494e5055545f414d4f554e5450616e63616b654c6962726172793a20494e53554646494349454e545f4c49515549444954595472616e7366657248656c7065723a205452414e534645525f46524f4d5f4641494c454450616e63616b65526f757465723a20494e53554646494349454e545f425f414d4f554e54a26469706673582212209d4d1d3ad2718e8b9a4440144ac592e49b7a75e71cbd9d3d65b3a4052b7b142a64736f6c634300060c0033",
  "immutableReferences": {
    "4054": [
      {
        "length": 32,
        "start": 2558
      },
      {
        "length": 32,
        "start": 2852
      },
      {
        "length": 32,
        "start": 2909
      },
      {
        "length": 32,
        "start": 3433
      },
      {
        "length": 32,
        "start": 3798
      },
      {
        "length": 32,
        "start": 4192
      },
      {
        "length": 32,
        "start": 4407
      },
      {
        "length": 32,
        "start": 5124
      },
      {
        "length": 32,
        "start": 5648
      },
      {
        "length": 32,
        "start": 6070
      },
      {
        "length": 32,
        "start": 6432
      },
      {
        "length": 32,
        "start": 6991
      },
      {
        "length": 32,
        "start": 7320
      },
      {
        "length": 32,
        "start": 7937
      },
      {
        "length": 32,
        "start": 8466
      },
      {
        "length": 32,
        "start": 8507
      },
      {
        "length": 32,
        "start": 8655
      },
      {
        "length": 32,
        "start": 10133
      },
      {
        "length": 32,
        "start": 10200
      },
      {
        "length": 32,
        "start": 11739
      },
      {
        "length": 32,
        "start": 11924
      },
      {
        "length": 32,
        "start": 12103
      }
    ],
    "4057": [
      {
        "length": 32,
        "start": 344
      },
      {
        "length": 32,
        "start": 2592
      },
      {
        "length": 32,
        "start": 3151
      },
      {
        "length": 32,
        "start": 3268
      },
      {
        "length": 32,
        "start": 3612
      },
      {
        "length": 32,
        "start": 3748
      },
      {
        "length": 32,
        "start": 4668
      },
      {
        "length": 32,
        "start": 4727
      },
      {
        "length": 32,
        "start": 4964
      },
      {
        "length": 32,
        "start": 5382
      },
      {
        "length": 32,
        "start": 5905
      },
      {
        "length": 32,
        "start": 6246
      },
      {
        "length": 32,
        "start": 6382
      },
      {
        "length": 32,
        "start": 6831
      },
      {
        "length": 32,
        "start": 7268
      },
      {
        "length": 32,
        "start": 7354
      },
      {
        "length": 32,
        "start": 7406
      },
      {
        "length": 32,
        "start": 7522
      }
    ]
  },
  "source": "// SPDX-License-Identifier: MIT\npragma solidity =0.6.12;\n\nimport './interfaces/IPancakeFactory.sol';\nimport './libraries/TransferHelper.sol';\n\nimport './libraries/PancakeLibrary.sol';\nimport './interfaces/IPancakeRouter01.sol';\nimport './interfaces/IERC20.sol';\nimport './interfaces/IWKLAY.sol';\n\ncontract PancakeRouter01 is IPancakeRouter01 {\n    address public immutable override factory;\n    address public immutable override WKLAY;\n\n    modifier ensure(uint deadline) {\n        require(deadline >= block.timestamp, 'PancakeRouter: EXPIRED');\n        _;\n    }\n\n    constructor(address _factory, address _WKLAY) public {\n        factory = _factory;\n        WKLAY = _WKLAY;\n    }\n\n    receive() external payable {\n        assert(msg.sender == WKLAY); // only accept KLAY via fallback from the WKLAY contract\n    }\n\n    // **** ADD LIQUIDITY ****\n    function _addLiquidity(\n        address tokenA,\n        address tokenB,\n        uint amountADesired,\n        uint amountBDesired,\n        uint amountAMin,\n        uint amountBMin\n    ) private returns (uint amountA, uint amountB) {\n        // create the pair if it doesn't exist yet\n        if (IPancakeFactory(factory).getPair(tokenA, tokenB) == address(0)) {\n            IPancakeFactory(factory).createPair(tokenA, tokenB);\n        }\n        (uint reserveA, uint reserveB) = PancakeLibrary.getReserves(factory, tokenA, tokenB);\n        if (reserveA == 0 && reserveB == 0) {\n            (amountA, amountB) = (amountADesired, amountBDesired);\n        } else {\n            uint amountBOptimal = PancakeLibrary.quote(amountADesired, reserveA, reserveB);\n            if (amountBOptimal <= amountBDesired) {\n                require(amountBOptimal >= amountBMin, 'PancakeRouter: INSUFFICIENT_B_AMOUNT');\n                (amountA, amountB) = (amountADesired, amountBOptimal);\n            } else {\n                uint amountAOptimal = PancakeLibrary.quote(amountBDesired, reserveB, reserveA);\n                assert(amountAOptimal <= amountADesired);\n                require(amountAOptimal >= amountAMin, 'PancakeRouter: INSUFFICIENT_A_AMOUNT');\n                (amountA, amountB) = (amountAOptimal, amountBDesired);\n            }\n        }\n    }\n    function addLiquidity(\n        address tokenA,\n        address tokenB,\n        uint amountADesired,\n        uint amountBDesired,\n        uint amountAMin,\n        uint amountBMin,\n        address to,\n        uint deadline\n    ) external override ensure(deadline) returns (uint amountA, uint amountB, uint liquidity) {\n        (amountA, amountB) = _addLiquidity(tokenA, tokenB, amountADesired, amountBDesired, amountAMin, amountBMin);\n        address pair = PancakeLibrary.pairFor(factory, tokenA, tokenB);\n        TransferHelper.safeTransferFrom(tokenA, msg.sender, pair, amountA);\n        TransferHelper.safeTransferFrom(tokenB, msg.sender, pair, amountB);\n        liquidity = IPancakePair(pair).mint(to);\n    }\n    function addLiquidityKLAY(\n        address token,\n        uint amountTokenDesired,\n        uint amountTokenMin,\n        uint amountKLAYMin,\n        address to,\n        uint deadline\n    ) external override payable ensure(deadline) returns (uint amountToken, uint amountKLAY, uint liquidity) {\n        (amountToken, amountKLAY) = _addLiquidity(\n            token,\n            WKLAY,\n            amountTokenDesired,\n            msg.value,\n            amountTokenMin,\n            amountKLAYMin\n        );\n        address pair = PancakeLibrary.pairFor(factory, token, WKLAY);\n        TransferHelper.safeTransferFrom(token, msg.sender, pair, amountToken);\n        IWKLAY(WKLAY).deposit{value: amountKLAY}();\n        assert(IWKLAY(WKLAY).transfer(pair, amountKLAY));\n        liquidity = IPancakePair(pair).mint(to);\n        if (msg.value > amountKLAY) TransferHelper.safeTransferKLAY(msg.sender, msg.value - amountKLAY); // refund dust klay, if any\n    }\n\n    // **** REMOVE LIQUIDITY ****\n    function removeLiquidity(\n        address tokenA,\n        address tokenB,\n        uint liquidity,\n        uint amountAMin,\n        uint amountBMin,\n        address to,\n        uint deadline\n    ) public override ensure(deadline) returns (uint amountA, uint amountB) {\n        address pair = PancakeLibrary.pairFor(factory, tokenA, tokenB);\n        IPancakePair(pair).transferFrom(msg.sender, pair, liquidity); // send liquidity to pair\n        (uint amount0, uint amount1) = IPancakePair(pair).burn(to);\n        (address token0,) = PancakeLibrary.sortTokens(tokenA, tokenB);\n        (amountA, amountB) = tokenA == token0 ? (amount0, amount1) : (amount1, amount0);\n        require(amountA >= amountAMin, 'PancakeRouter: INSUFFICIENT_A_AMOUNT');\n        require(amountB >= amountBMin, 'PancakeRouter: INSUFFICIENT_B_AMOUNT');\n    }\n    function removeLiquidityKLAY(\n        address token,\n        uint liquidity,\n        uint amountTokenMin,\n        uint amountKLAYMin,\n        address to,\n        uint deadline\n    ) public override ensure(deadline) returns (uint amountToken, uint amountKLAY) {\n        (amountToken, amountKLAY) = removeLiquidity(\n            token,\n            WKLAY,\n            liquidity,\n            amountTokenMin,\n            amountKLAYMin,\n            address(this),\n            deadline\n        );\n        TransferHelper.safeTransfer(token, to, amountToken);\n        IWKLAY(WKLAY).withdraw(amountKLAY);\n        TransferHelper.safeTransferKLAY(to, amountKLAY);\n    }\n    function removeLiquidityWithPermit(\n        address tokenA,\n        address tokenB,\n        uint liquidity,\n        uint amountAMin,\n        uint amountBMin,\n        address to,\n        uint deadline,\n        bool approveMax, uint8 v, bytes32 r, bytes32 s\n    ) external override returns (uint amountA, uint amountB) {\n        address pair = PancakeLibrary.pairFor(factory, tokenA, tokenB);\n        uint value = approveMax ? uint(-1) : liquidity;\n        IPancakePair(pair).permit(msg.sender, address(this), value, deadline, v, r, s);\n        (amountA, amountB) = removeLiquidity(tokenA, tokenB, liquidity, amountAMin, amountBMin, to, deadline);\n    }\n    function removeLiquidityKLAYWithPermit(\n        address token,\n        uint liquidity,\n        uint amountTokenMin,\n        uint amountKLAYMin,\n        address to,\n        uint deadline,\n        bool approveMax, uint8 v, bytes32 r, bytes32 s\n    ) external override returns (uint amountToken, uint amountKLAY) {\n        address pair = PancakeLibrary.pairFor(factory, token, WKLAY);\n        uint value = approveMax ? uint(-1) : liquidity;\n        IPancakePair(pair).permit(msg.sender, address(this), value, deadline, v, r, s);\n        (amountToken, amountKLAY) = removeLiquidityKLAY(token, liquidity, amountTokenMin, amountKLAYMin, to, deadline);\n    }\n\n    // **** SWAP ****\n    // requires the initial amount to have already been sent to the first pair\n    function _swap(uint[] memory amounts, address[] memory path, address _to) private {\n        for (uint i; i < path.length - 1; i++) {\n            (address input, address output) = (path[i], path[i + 1]);\n            (address token0,) = PancakeLibrary.sortTokens(input, output);\n            uint amountOut = amounts[i + 1];\n            (uint amount0Out, uint amount1Out) = input == token0 ? (uint(0), amountOut) : (amountOut, uint(0));\n            address to = i < path.length - 2 ? PancakeLibrary.pairFor(factory, output, path[i + 2]) : _to;\n            IPancakePair(PancakeLibrary.pairFor(factory, input, output)).swap(amount0Out, amount1Out, to, new bytes(0));\n        }\n    }\n    function swapExactTokensForTokens(\n        uint amountIn,\n        uint amountOutMin,\n        address[] calldata path,\n        address to,\n        uint deadline\n    ) external override ensure(deadline) returns (uint[] memory amounts) {\n        amounts = PancakeLibrary.getAmountsOut(factory, amountIn, path);\n        require(amounts[amounts.length - 1] >= amountOutMin, 'PancakeRouter: INSUFFICIENT_OUTPUT_AMOUNT');\n        TransferHelper.safeTransferFrom(path[0], msg.sender, PancakeLibrary.pairFor(factory, path[0], path[1]), amounts[0]);\n        _swap(amounts, path, to);\n    }\n    function swapTokensForExactTokens(\n        uint amountOut,\n        uint amountInMax,\n        address[] calldata path,\n        address to,\n        uint deadline\n    ) external override ensure(deadline) returns (uint[] memory amounts) {\n        amounts = PancakeLibrary.getAmountsIn(factory, amountOut, path);\n        require(amounts[0] <= amountInMax, 'PancakeRouter: EXCESSIVE_INPUT_AMOUNT');\n        TransferHelper.safeTransferFrom(path[0], msg.sender, PancakeLibrary.pairFor(factory, path[0], path[1]), amounts[0]);\n        _swap(amounts, path, to);\n    }\n    function swapExactKLAYForTokens(uint amountOutMin, address[] calldata path, address to, uint deadline)\n        external\n        override\n        payable\n        ensure(deadline)\n        returns (uint[] memory amounts)\n    {\n        require(path[0] == WKLAY, 'PancakeRouter: INVALID_PATH');\n        amounts = PancakeLibrary.getAmountsOut(factory, msg.value, path);\n        require(amounts[amounts.length - 1] >= amountOutMin, 'PancakeRouter: INSUFFICIENT_OUTPUT_AMOUNT');\n        IWKLAY(WKLAY).deposit{value: amounts[0]}();\n        assert(IWKLAY(WKLAY).transfer(PancakeLibrary.pairFor(factory, path[0], path[1]), amounts[0]));\n        _swap(amounts, path, to);\n    }\n    function swapTokensForExactKLAY(uint amountOut, uint amountInMax, address[] calldata path, address to, uint deadline)\n        external\n        override\n        ensure(deadline)\n        returns (uint[] memory amounts)\n    {\n        require(path[path.length - 1] == WKLAY, 'PancakeRouter: INVALID_PATH');\n        amounts = PancakeLibrary.getAmountsIn(factory, amountOut, path);\n        require(amounts[0] <= amountInMax, 'PancakeRouter: EXCESSIVE_INPUT_AMOUNT');\n        TransferHelper.safeTransferFrom(path[0], msg.sender, PancakeLibrary.pairFor(factory, path[0], path[1]), amounts[0]);\n        _swap(amounts, path, address(this));\n        IWKLAY(WKLAY).withdraw(amounts[amounts.length - 1]);\n        TransferHelper.safeTransferKLAY(to, amounts[amounts.length - 1]);\n    }\n    function swapExactTokensForKLAY(uint amountIn, uint amountOutMin, address[] calldata path, address to, uint deadline)\n        external\n        override\n        ensure(deadline)\n        returns (uint[] memory amounts)\n    {\n        require(path[path.length - 1] == WKLAY, 'PancakeRouter: INVALID_PATH');\n        amounts = PancakeLibrary.getAmountsOut(factory, amountIn, path);\n        require(amounts[amounts.length - 1] >= amountOutMin, 'PancakeRouter: INSUFFICIENT_OUTPUT_AMOUNT');\n        TransferHelper.safeTransferFrom(path[0], msg.sender, PancakeLibrary.pairFor(factory, path[0], path[1]), amounts[0]);\n        _swap(amounts, path, address(this));\n        IWKLAY(WKLAY).withdraw(amounts[amounts.length - 1]);\n        TransferHelper.safeTransferKLAY(to, amounts[amounts.length - 1]);\n    }\n    function swapKLAYForExactTokens(uint amountOut, address[] calldata path, address to, uint deadline)\n        external\n        override\n        payable\n        ensure(deadline)\n        returns (uint[] memory amounts)\n    {\n        require(path[0] == WKLAY, 'PancakeRouter: INVALID_PATH');\n        amounts = PancakeLibrary.getAmountsIn(factory, amountOut, path);\n        require(amounts[0] <= msg.value, 'PancakeRouter: EXCESSIVE_INPUT_AMOUNT');\n        IWKLAY(WKLAY).deposit{value: amounts[0]}();\n        assert(IWKLAY(WKLAY).transfer(PancakeLibrary.pairFor(factory, path[0], path[1]), amounts[0]));\n        _swap(amounts, path, to);\n        if (msg.value > amounts[0]) TransferHelper.safeTransferKLAY(msg.sender, msg.value - amounts[0]); // refund dust klay, if any\n    }\n\n    function quote(uint amountA, uint reserveA, uint reserveB) public pure override returns (uint amountB) {\n        return PancakeLibrary.quote(amountA, reserveA, reserveB);\n    }\n\n    function getAmountOut(uint amountIn, uint reserveIn, uint reserveOut) public pure override returns (uint amountOut) {\n        return PancakeLibrary.getAmountOut(amountIn, reserveIn, reserveOut);\n    }\n\n    function getAmountIn(uint amountOut, uint reserveIn, uint reserveOut) public pure override returns (uint amountIn) {\n        return PancakeLibrary.getAmountOut(amountOut, reserveIn, reserveOut);\n    }\n\n    function getAmountsOut(uint amountIn, address[] memory path) public view override returns (uint[] memory amounts) {\n        return PancakeLibrary.getAmountsOut(factory, amountIn, path);\n    }\n\n    function getAmountsIn(uint amountOut, address[] memory path) public view override returns (uint[] memory amounts) {\n        return PancakeLibrary.getAmountsIn(factory, amountOut, path);\n    }\n}\n",
  "sourcePath": "/Users/kakao/Code/pancake-swap-core/contracts/PancakeRouter01.sol",
  "compiler": {
    "name": "solc",
    "version": "0.6.12+commit.27d51765.Emscripten.clang"
  },
  "schemaVersion": "3.3.4",
  "updatedAt": "2021-10-14T08:08:25.529Z",
  "networkType": "ethereum",
  "devdoc": {
    "kind": "dev",
    "methods": {},
    "version": 1
  },
  "userdoc": {
    "kind": "user",
    "methods": {},
    "version": 1
  }
}