{
  "contractName": "PancakeRouter",
  "abi": [
    {
      "inputs": [
        {
          "internalType": "address",
          "name": "_factory",
          "type": "address"
        },
        {
          "internalType": "address",
          "name": "_WKLAY",
          "type": "address"
        }
      ],
      "stateMutability": "nonpayable",
      "type": "constructor"
    },
    {
      "inputs": [],
      "name": "WKLAY",
      "outputs": [
        {
          "internalType": "address",
          "name": "",
          "type": "address"
        }
      ],
      "stateMutability": "view",
      "type": "function",
      "constant": true
    },
    {
      "inputs": [],
      "name": "factory",
      "outputs": [
        {
          "internalType": "address",
          "name": "",
          "type": "address"
        }
      ],
      "stateMutability": "view",
      "type": "function",
      "constant": true
    },
    {
      "stateMutability": "payable",
      "type": "receive",
      "payable": true
    },
    {
      "inputs": [
        {
          "internalType": "address",
          "name": "tokenA",
          "type": "address"
        },
        {
          "internalType": "address",
          "name": "tokenB",
          "type": "address"
        },
        {
          "internalType": "uint256",
          "name": "amountADesired",
          "type": "uint256"
        },
        {
          "internalType": "uint256",
          "name": "amountBDesired",
          "type": "uint256"
        },
        {
          "internalType": "uint256",
          "name": "amountAMin",
          "type": "uint256"
        },
        {
          "internalType": "uint256",
          "name": "amountBMin",
          "type": "uint256"
        },
        {
          "internalType": "address",
          "name": "to",
          "type": "address"
        },
        {
          "internalType": "uint256",
          "name": "deadline",
          "type": "uint256"
        }
      ],
      "name": "addLiquidity",
      "outputs": [
        {
          "internalType": "uint256",
          "name": "amountA",
          "type": "uint256"
        },
        {
          "internalType": "uint256",
          "name": "amountB",
          "type": "uint256"
        },
        {
          "internalType": "uint256",
          "name": "liquidity",
          "type": "uint256"
        }
      ],
      "stateMutability": "nonpayable",
      "type": "function"
    },
    {
      "inputs": [
        {
          "internalType": "address",
          "name": "token",
          "type": "address"
        },
        {
          "internalType": "uint256",
          "name": "amountTokenDesired",
          "type": "uint256"
        },
        {
          "internalType": "uint256",
          "name": "amountTokenMin",
          "type": "uint256"
        },
        {
          "internalType": "uint256",
          "name": "amountKLAYMin",
          "type": "uint256"
        },
        {
          "internalType": "address",
          "name": "to",
          "type": "address"
        },
        {
          "internalType": "uint256",
          "name": "deadline",
          "type": "uint256"
        }
      ],
      "name": "addLiquidityKLAY",
      "outputs": [
        {
          "internalType": "uint256",
          "name": "amountToken",
          "type": "uint256"
        },
        {
          "internalType": "uint256",
          "name": "amountKLAY",
          "type": "uint256"
        },
        {
          "internalType": "uint256",
          "name": "liquidity",
          "type": "uint256"
        }
      ],
      "stateMutability": "payable",
      "type": "function",
      "payable": true
    },
    {
      "inputs": [
        {
          "internalType": "address",
          "name": "tokenA",
          "type": "address"
        },
        {
          "internalType": "address",
          "name": "tokenB",
          "type": "address"
        },
        {
          "internalType": "uint256",
          "name": "liquidity",
          "type": "uint256"
        },
        {
          "internalType": "uint256",
          "name": "amountAMin",
          "type": "uint256"
        },
        {
          "internalType": "uint256",
          "name": "amountBMin",
          "type": "uint256"
        },
        {
          "internalType": "address",
          "name": "to",
          "type": "address"
        },
        {
          "internalType": "uint256",
          "name": "deadline",
          "type": "uint256"
        }
      ],
      "name": "removeLiquidity",
      "outputs": [
        {
          "internalType": "uint256",
          "name": "amountA",
          "type": "uint256"
        },
        {
          "internalType": "uint256",
          "name": "amountB",
          "type": "uint256"
        }
      ],
      "stateMutability": "nonpayable",
      "type": "function"
    },
    {
      "inputs": [
        {
          "internalType": "address",
          "name": "token",
          "type": "address"
        },
        {
          "internalType": "uint256",
          "name": "liquidity",
          "type": "uint256"
        },
        {
          "internalType": "uint256",
          "name": "amountTokenMin",
          "type": "uint256"
        },
        {
          "internalType": "uint256",
          "name": "amountKLAYMin",
          "type": "uint256"
        },
        {
          "internalType": "address",
          "name": "to",
          "type": "address"
        },
        {
          "internalType": "uint256",
          "name": "deadline",
          "type": "uint256"
        }
      ],
      "name": "removeLiquidityKLAY",
      "outputs": [
        {
          "internalType": "uint256",
          "name": "amountToken",
          "type": "uint256"
        },
        {
          "internalType": "uint256",
          "name": "amountKLAY",
          "type": "uint256"
        }
      ],
      "stateMutability": "nonpayable",
      "type": "function"
    },
    {
      "inputs": [
        {
          "internalType": "address",
          "name": "tokenA",
          "type": "address"
        },
        {
          "internalType": "address",
          "name": "tokenB",
          "type": "address"
        },
        {
          "internalType": "uint256",
          "name": "liquidity",
          "type": "uint256"
        },
        {
          "internalType": "uint256",
          "name": "amountAMin",
          "type": "uint256"
        },
        {
          "internalType": "uint256",
          "name": "amountBMin",
          "type": "uint256"
        },
        {
          "internalType": "address",
          "name": "to",
          "type": "address"
        },
        {
          "internalType": "uint256",
          "name": "deadline",
          "type": "uint256"
        },
        {
          "internalType": "bool",
          "name": "approveMax",
          "type": "bool"
        },
        {
          "internalType": "uint8",
          "name": "v",
          "type": "uint8"
        },
        {
          "internalType": "bytes32",
          "name": "r",
          "type": "bytes32"
        },
        {
          "internalType": "bytes32",
          "name": "s",
          "type": "bytes32"
        }
      ],
      "name": "removeLiquidityWithPermit",
      "outputs": [
        {
          "internalType": "uint256",
          "name": "amountA",
          "type": "uint256"
        },
        {
          "internalType": "uint256",
          "name": "amountB",
          "type": "uint256"
        }
      ],
      "stateMutability": "nonpayable",
      "type": "function"
    },
    {
      "inputs": [
        {
          "internalType": "address",
          "name": "token",
          "type": "address"
        },
        {
          "internalType": "uint256",
          "name": "liquidity",
          "type": "uint256"
        },
        {
          "internalType": "uint256",
          "name": "amountTokenMin",
          "type": "uint256"
        },
        {
          "internalType": "uint256",
          "name": "amountKLAYMin",
          "type": "uint256"
        },
        {
          "internalType": "address",
          "name": "to",
          "type": "address"
        },
        {
          "internalType": "uint256",
          "name": "deadline",
          "type": "uint256"
        },
        {
          "internalType": "bool",
          "name": "approveMax",
          "type": "bool"
        },
        {
          "internalType": "uint8",
          "name": "v",
          "type": "uint8"
        },
        {
          "internalType": "bytes32",
          "name": "r",
          "type": "bytes32"
        },
        {
          "internalType": "bytes32",
          "name": "s",
          "type": "bytes32"
        }
      ],
      "name": "removeLiquidityKLAYWithPermit",
      "outputs": [
        {
          "internalType": "uint256",
          "name": "amountToken",
          "type": "uint256"
        },
        {
          "internalType": "uint256",
          "name": "amountKLAY",
          "type": "uint256"
        }
      ],
      "stateMutability": "nonpayable",
      "type": "function"
    },
    {
      "inputs": [
        {
          "internalType": "address",
          "name": "token",
          "type": "address"
        },
        {
          "internalType": "uint256",
          "name": "liquidity",
          "type": "uint256"
        },
        {
          "internalType": "uint256",
          "name": "amountTokenMin",
          "type": "uint256"
        },
        {
          "internalType": "uint256",
          "name": "amountKLAYMin",
          "type": "uint256"
        },
        {
          "internalType": "address",
          "name": "to",
          "type": "address"
        },
        {
          "internalType": "uint256",
          "name": "deadline",
          "type": "uint256"
        }
      ],
      "name": "removeLiquidityKLAYSupportingFeeOnTransferTokens",
      "outputs": [
        {
          "internalType": "uint256",
          "name": "amountKLAY",
          "type": "uint256"
        }
      ],
      "stateMutability": "nonpayable",
      "type": "function"
    },
    {
      "inputs": [
        {
          "internalType": "address",
          "name": "token",
          "type": "address"
        },
        {
          "internalType": "uint256",
          "name": "liquidity",
          "type": "uint256"
        },
        {
          "internalType": "uint256",
          "name": "amountTokenMin",
          "type": "uint256"
        },
        {
          "internalType": "uint256",
          "name": "amountKLAYMin",
          "type": "uint256"
        },
        {
          "internalType": "address",
          "name": "to",
          "type": "address"
        },
        {
          "internalType": "uint256",
          "name": "deadline",
          "type": "uint256"
        },
        {
          "internalType": "bool",
          "name": "approveMax",
          "type": "bool"
        },
        {
          "internalType": "uint8",
          "name": "v",
          "type": "uint8"
        },
        {
          "internalType": "bytes32",
          "name": "r",
          "type": "bytes32"
        },
        {
          "internalType": "bytes32",
          "name": "s",
          "type": "bytes32"
        }
      ],
      "name": "removeLiquidityKLAYWithPermitSupportingFeeOnTransferTokens",
      "outputs": [
        {
          "internalType": "uint256",
          "name": "amountKLAY",
          "type": "uint256"
        }
      ],
      "stateMutability": "nonpayable",
      "type": "function"
    },
    {
      "inputs": [
        {
          "internalType": "uint256",
          "name": "amountIn",
          "type": "uint256"
        },
        {
          "internalType": "uint256",
          "name": "amountOutMin",
          "type": "uint256"
        },
        {
          "internalType": "address[]",
          "name": "path",
          "type": "address[]"
        },
        {
          "internalType": "address",
          "name": "to",
          "type": "address"
        },
        {
          "internalType": "uint256",
          "name": "deadline",
          "type": "uint256"
        }
      ],
      "name": "swapExactTokensForTokens",
      "outputs": [
        {
          "internalType": "uint256[]",
          "name": "amounts",
          "type": "uint256[]"
        }
      ],
      "stateMutability": "nonpayable",
      "type": "function"
    },
    {
      "inputs": [
        {
          "internalType": "uint256",
          "name": "amountOut",
          "type": "uint256"
        },
        {
          "internalType": "uint256",
          "name": "amountInMax",
          "type": "uint256"
        },
        {
          "internalType": "address[]",
          "name": "path",
          "type": "address[]"
        },
        {
          "internalType": "address",
          "name": "to",
          "type": "address"
        },
        {
          "internalType": "uint256",
          "name": "deadline",
          "type": "uint256"
        }
      ],
      "name": "swapTokensForExactTokens",
      "outputs": [
        {
          "internalType": "uint256[]",
          "name": "amounts",
          "type": "uint256[]"
        }
      ],
      "stateMutability": "nonpayable",
      "type": "function"
    },
    {
      "inputs": [
        {
          "internalType": "uint256",
          "name": "amountOutMin",
          "type": "uint256"
        },
        {
          "internalType": "address[]",
          "name": "path",
          "type": "address[]"
        },
        {
          "internalType": "address",
          "name": "to",
          "type": "address"
        },
        {
          "internalType": "uint256",
          "name": "deadline",
          "type": "uint256"
        }
      ],
      "name": "swapExactKLAYForTokens",
      "outputs": [
        {
          "internalType": "uint256[]",
          "name": "amounts",
          "type": "uint256[]"
        }
      ],
      "stateMutability": "payable",
      "type": "function",
      "payable": true
    },
    {
      "inputs": [
        {
          "internalType": "uint256",
          "name": "amountOut",
          "type": "uint256"
        },
        {
          "internalType": "uint256",
          "name": "amountInMax",
          "type": "uint256"
        },
        {
          "internalType": "address[]",
          "name": "path",
          "type": "address[]"
        },
        {
          "internalType": "address",
          "name": "to",
          "type": "address"
        },
        {
          "internalType": "uint256",
          "name": "deadline",
          "type": "uint256"
        }
      ],
      "name": "swapTokensForExactKLAY",
      "outputs": [
        {
          "internalType": "uint256[]",
          "name": "amounts",
          "type": "uint256[]"
        }
      ],
      "stateMutability": "nonpayable",
      "type": "function"
    },
    {
      "inputs": [
        {
          "internalType": "uint256",
          "name": "amountIn",
          "type": "uint256"
        },
        {
          "internalType": "uint256",
          "name": "amountOutMin",
          "type": "uint256"
        },
        {
          "internalType": "address[]",
          "name": "path",
          "type": "address[]"
        },
        {
          "internalType": "address",
          "name": "to",
          "type": "address"
        },
        {
          "internalType": "uint256",
          "name": "deadline",
          "type": "uint256"
        }
      ],
      "name": "swapExactTokensForKLAY",
      "outputs": [
        {
          "internalType": "uint256[]",
          "name": "amounts",
          "type": "uint256[]"
        }
      ],
      "stateMutability": "nonpayable",
      "type": "function"
    },
    {
      "inputs": [
        {
          "internalType": "uint256",
          "name": "amountOut",
          "type": "uint256"
        },
        {
          "internalType": "address[]",
          "name": "path",
          "type": "address[]"
        },
        {
          "internalType": "address",
          "name": "to",
          "type": "address"
        },
        {
          "internalType": "uint256",
          "name": "deadline",
          "type": "uint256"
        }
      ],
      "name": "swapKLAYForExactTokens",
      "outputs": [
        {
          "internalType": "uint256[]",
          "name": "amounts",
          "type": "uint256[]"
        }
      ],
      "stateMutability": "payable",
      "type": "function",
      "payable": true
    },
    {
      "inputs": [
        {
          "internalType": "uint256",
          "name": "amountIn",
          "type": "uint256"
        },
        {
          "internalType": "uint256",
          "name": "amountOutMin",
          "type": "uint256"
        },
        {
          "internalType": "address[]",
          "name": "path",
          "type": "address[]"
        },
        {
          "internalType": "address",
          "name": "to",
          "type": "address"
        },
        {
          "internalType": "uint256",
          "name": "deadline",
          "type": "uint256"
        }
      ],
      "name": "swapExactTokensForTokensSupportingFeeOnTransferTokens",
      "outputs": [],
      "stateMutability": "nonpayable",
      "type": "function"
    },
    {
      "inputs": [
        {
          "internalType": "uint256",
          "name": "amountOutMin",
          "type": "uint256"
        },
        {
          "internalType": "address[]",
          "name": "path",
          "type": "address[]"
        },
        {
          "internalType": "address",
          "name": "to",
          "type": "address"
        },
        {
          "internalType": "uint256",
          "name": "deadline",
          "type": "uint256"
        }
      ],
      "name": "swapExactKLAYForTokensSupportingFeeOnTransferTokens",
      "outputs": [],
      "stateMutability": "payable",
      "type": "function",
      "payable": true
    },
    {
      "inputs": [
        {
          "internalType": "uint256",
          "name": "amountIn",
          "type": "uint256"
        },
        {
          "internalType": "uint256",
          "name": "amountOutMin",
          "type": "uint256"
        },
        {
          "internalType": "address[]",
          "name": "path",
          "type": "address[]"
        },
        {
          "internalType": "address",
          "name": "to",
          "type": "address"
        },
        {
          "internalType": "uint256",
          "name": "deadline",
          "type": "uint256"
        }
      ],
      "name": "swapExactTokensForKLAYSupportingFeeOnTransferTokens",
      "outputs": [],
      "stateMutability": "nonpayable",
      "type": "function"
    },
    {
      "inputs": [
        {
          "internalType": "uint256",
          "name": "amountA",
          "type": "uint256"
        },
        {
          "internalType": "uint256",
          "name": "reserveA",
          "type": "uint256"
        },
        {
          "internalType": "uint256",
          "name": "reserveB",
          "type": "uint256"
        }
      ],
      "name": "quote",
      "outputs": [
        {
          "internalType": "uint256",
          "name": "amountB",
          "type": "uint256"
        }
      ],
      "stateMutability": "pure",
      "type": "function",
      "constant": true
    },
    {
      "inputs": [
        {
          "internalType": "uint256",
          "name": "amountIn",
          "type": "uint256"
        },
        {
          "internalType": "uint256",
          "name": "reserveIn",
          "type": "uint256"
        },
        {
          "internalType": "uint256",
          "name": "reserveOut",
          "type": "uint256"
        }
      ],
      "name": "getAmountOut",
      "outputs": [
        {
          "internalType": "uint256",
          "name": "amountOut",
          "type": "uint256"
        }
      ],
      "stateMutability": "pure",
      "type": "function",
      "constant": true
    },
    {
      "inputs": [
        {
          "internalType": "uint256",
          "name": "amountOut",
          "type": "uint256"
        },
        {
          "internalType": "uint256",
          "name": "reserveIn",
          "type": "uint256"
        },
        {
          "internalType": "uint256",
          "name": "reserveOut",
          "type": "uint256"
        }
      ],
      "name": "getAmountIn",
      "outputs": [
        {
          "internalType": "uint256",
          "name": "amountIn",
          "type": "uint256"
        }
      ],
      "stateMutability": "pure",
      "type": "function",
      "constant": true
    },
    {
      "inputs": [
        {
          "internalType": "uint256",
          "name": "amountIn",
          "type": "uint256"
        },
        {
          "internalType": "address[]",
          "name": "path",
          "type": "address[]"
        }
      ],
      "name": "getAmountsOut",
      "outputs": [
        {
          "internalType": "uint256[]",
          "name": "amounts",
          "type": "uint256[]"
        }
      ],
      "stateMutability": "view",
      "type": "function",
      "constant": true
    },
    {
      "inputs": [
        {
          "internalType": "uint256",
          "name": "amountOut",
          "type": "uint256"
        },
        {
          "internalType": "address[]",
          "name": "path",
          "type": "address[]"
        }
      ],
      "name": "getAmountsIn",
      "outputs": [
        {
          "internalType": "uint256[]",
          "name": "amounts",
          "type": "uint256[]"
        }
      ],
      "stateMutability": "view",
      "type": "function",
      "constant": true
    }
  ],
  "bytecode": "0x60c060405234801561001057600080fd5b50604051620048c6380380620048c68339818101604052604081101561003557600080fd5b5080516020909101516001600160601b0319606092831b8116608052911b1660a05260805160601c60a05160601c614741620001856000398061019f5280610d195280610f485280610fbd5280611115528061119d52806115355280611570528061165b5280611790528061186a5280611b6e5280611d105280611f28528061207d528061210552806122c6528061247b52806124d152806125055280612579528061271052806127b7528061282b5280612e9b5280612f4f5280612fff525080610cf75280610e1d5280610e56528061106252806111cf52806113595280611430528061171c5280611c0e5280611e275280611fcd5280612137528061236652806124af528061285d5280612aa65280612cb75280612ce05280612d745280612fdd52806135d9528061361c5280613bc05280613d3d5280614071528061412a52806141dd52506147416000f3fe60806040526004361061018f5760003560e01c80638803dbee116100d6578063baa2abde1161007f578063e8e3370011610059578063e8e3370014610bc5578063ec43201414610c27578063eca935e514610c7a576101c8565b8063baa2abde14610a9c578063c45a015514610af9578063d06ca61f14610b0e576101c8565b8063ad615dec116100b0578063ad615dec1461097c578063b216fe9b146109b2578063b46fec5b14610a16576101c8565b80638803dbee146107c6578063901336051461085e57806398de2cd2146108e4576101c8565b806338ed1739116101385780635c11d795116101125780635c11d795146106605780636fe5f23f146106f857806385f8c25914610790576101c8565b806338ed1739146104dd5780633c187a6b146105755780635bff1aa8146105c8576101c8565b80632195995c116101695780632195995c146103a8578063249502d7146104265780633022d3a814610457576101c8565b80630158a313146101cd578063054d50d4146102595780631f00ca74146102a1576101c8565b366101c857336001600160a01b037f000000000000000000000000000000000000000000000000000000000000000016146101c657fe5b005b600080fd5b3480156101d957600080fd5b5061024060048036036101408110156101f157600080fd5b506001600160a01b0381358116916020810135916040820135916060810135916080820135169060a08101359060c081013515159060ff60e08201351690610100810135906101200135610ced565b6040805192835260208301919091528051918290030190f35b34801561026557600080fd5b5061028f6004803603606081101561027c57600080fd5b5080359060208101359060400135610e01565b60408051918252519081900360200190f35b3480156102ad57600080fd5b50610358600480360360408110156102c457600080fd5b813591908101906040810160208201356401000000008111156102e657600080fd5b8201836020820111156102f857600080fd5b8035906020019184602083028401116401000000008311171561031a57600080fd5b919080806020026020016040519081016040528093929190818152602001838360200280828437600092019190915250929550610e16945050505050565b60408051602080825283518183015283519192839290830191858101910280838360005b8381101561039457818101518382015260200161037c565b505050509050019250505060405180910390f35b3480156103b457600080fd5b5061024060048036036101608110156103cc57600080fd5b506001600160a01b038135811691602081013582169160408201359160608101359160808201359160a08101359091169060c08101359060e081013515159060ff6101008201351690610120810135906101400135610e4c565b34801561043257600080fd5b5061043b610f46565b604080516001600160a01b039092168252519081900360200190f35b6103586004803603608081101561046d57600080fd5b8135919081019060408101602082013564010000000081111561048f57600080fd5b8201836020820111156104a157600080fd5b803590602001918460208302840111640100000000831117156104c357600080fd5b91935091506001600160a01b038135169060200135610f6a565b3480156104e957600080fd5b50610358600480360360a081101561050057600080fd5b81359160208101359181019060608101604082013564010000000081111561052757600080fd5b82018360208201111561053957600080fd5b8035906020019184602083028401116401000000008311171561055b57600080fd5b91935091506001600160a01b038135169060200135611303565b34801561058157600080fd5b50610240600480360360c081101561059857600080fd5b506001600160a01b0381358116916020810135916040820135916060810135916080820135169060a001356114dd565b3480156105d457600080fd5b506101c6600480360360a08110156105eb57600080fd5b81359160208101359181019060608101604082013564010000000081111561061257600080fd5b82018360208201111561062457600080fd5b8035906020019184602083028401116401000000008311171561064657600080fd5b91935091506001600160a01b038135169060200135611602565b34801561066c57600080fd5b506101c6600480360360a081101561068357600080fd5b8135916020810135918101906060810160408201356401000000008111156106aa57600080fd5b8201836020820111156106bc57600080fd5b803590602001918460208302840111640100000000831117156106de57600080fd5b91935091506001600160a01b0381351690602001356118fa565b34801561070457600080fd5b50610358600480360360a081101561071b57600080fd5b81359160208101359181019060608101604082013564010000000081111561074257600080fd5b82018360208201111561075457600080fd5b8035906020019184602083028401116401000000008311171561077657600080fd5b91935091506001600160a01b038135169060200135611b13565b34801561079c57600080fd5b5061028f600480360360608110156107b357600080fd5b5080359060208101359060400135611dc4565b3480156107d257600080fd5b50610358600480360360a08110156107e957600080fd5b81359160208101359181019060608101604082013564010000000081111561081057600080fd5b82018360208201111561082257600080fd5b8035906020019184602083028401116401000000008311171561084457600080fd5b91935091506001600160a01b038135169060200135611dd1565b6103586004803603608081101561087457600080fd5b8135919081019060408101602082013564010000000081111561089657600080fd5b8201836020820111156108a857600080fd5b803590602001918460208302840111640100000000831117156108ca57600080fd5b91935091506001600160a01b038135169060200135611ed5565b3480156108f057600080fd5b50610358600480360360a081101561090757600080fd5b81359160208101359181019060608101604082013564010000000081111561092e57600080fd5b82018360208201111561094057600080fd5b8035906020019184602083028401116401000000008311171561096257600080fd5b91935091506001600160a01b03813516906020013561226b565b34801561098857600080fd5b5061028f6004803603606081101561099f57600080fd5b5080359060208101359060400135612414565b6109f8600480360360c08110156109c857600080fd5b506001600160a01b0381358116916020810135916040820135916060810135916080820135169060a00135612421565b60408051938452602084019290925282820152519081900360600190f35b6101c660048036036080811015610a2c57600080fd5b81359190810190604081016020820135640100000000811115610a4e57600080fd5b820183602082011115610a6057600080fd5b80359060200191846020830284011164010000000083111715610a8257600080fd5b91935091506001600160a01b0381351690602001356126bf565b348015610aa857600080fd5b50610240600480360360e0811015610abf57600080fd5b506001600160a01b038135811691602081013582169160408201359160608101359160808201359160a08101359091169060c00135612a4d565b348015610b0557600080fd5b5061043b612cb5565b348015610b1a57600080fd5b5061035860048036036040811015610b3157600080fd5b81359190810190604081016020820135640100000000811115610b5357600080fd5b820183602082011115610b6557600080fd5b80359060200191846020830284011164010000000083111715610b8757600080fd5b919080806020026020016040519081016040528093929190818152602001838360200280828437600092019190915250929550612cd9945050505050565b348015610bd157600080fd5b506109f86004803603610100811015610be957600080fd5b506001600160a01b038135811691602081013582169160408201359160608101359160808201359160a08101359160c0820135169060e00135612d06565b348015610c3357600080fd5b5061028f600480360360c0811015610c4a57600080fd5b506001600160a01b0381358116916020810135916040820135916060810135916080820135169060a00135612e44565b348015610c8657600080fd5b5061028f6004803603610140811015610c9e57600080fd5b506001600160a01b0381358116916020810135916040820135916060810135916080820135169060a08101359060c081013515159060ff60e08201351690610100810135906101200135612fd5565b6000806000610d3d7f00000000000000000000000000000000000000000000000000000000000000008e7f00000000000000000000000000000000000000000000000000000000000000006130e3565b9050600087610d4c578c610d50565b6000195b6040805163d505accf60e01b815233600482015230602482015260448101839052606481018c905260ff8a16608482015260a4810189905260c4810188905290519192506001600160a01b0384169163d505accf9160e48082019260009290919082900301818387803b158015610dc657600080fd5b505af1158015610dda573d6000803e3d6000fd5b50505050610dec8e8e8e8e8e8e6114dd565b909f909e509c50505050505050505050505050565b6000610e0e8484846131ce565b949350505050565b6060610e437f000000000000000000000000000000000000000000000000000000000000000084846132a6565b90505b92915050565b6000806000610e7c7f00000000000000000000000000000000000000000000000000000000000000008f8f6130e3565b9050600087610e8b578c610e8f565b6000195b6040805163d505accf60e01b815233600482015230602482015260448101839052606481018c905260ff8a16608482015260a4810189905260c4810188905290519192506001600160a01b0384169163d505accf9160e48082019260009290919082900301818387803b158015610f0557600080fd5b505af1158015610f19573d6000803e3d6000fd5b50505050610f2c8f8f8f8f8f8f8f612a4d565b809450819550505050509b509b9950505050505050505050565b7f000000000000000000000000000000000000000000000000000000000000000081565b60608142811015610fbb576040805162461bcd60e51b815260206004820152601660248201527514185b98d85ad9549bdd5d195c8e881156141254915160521b604482015290519081900360640190fd5b7f00000000000000000000000000000000000000000000000000000000000000006001600160a01b031686866000818110610ff257fe5b905060200201356001600160a01b03166001600160a01b03161461105d576040805162461bcd60e51b815260206004820152601b60248201527f50616e63616b65526f757465723a20494e56414c49445f504154480000000000604482015290519081900360640190fd5b6110bb7f0000000000000000000000000000000000000000000000000000000000000000348888808060200260200160405190810160405280939291908181526020018383602002808284376000920191909152506133f392505050565b915086826001845103815181106110ce57fe5b602002602001015110156111135760405162461bcd60e51b81526004018080602001828103825260298152602001806145c26029913960400191505060405180910390fd5b7f00000000000000000000000000000000000000000000000000000000000000006001600160a01b031663d0e30db08360008151811061114f57fe5b60200260200101516040518263ffffffff1660e01b81526004016000604051808303818588803b15801561118257600080fd5b505af1158015611196573d6000803e3d6000fd5b50505050507f00000000000000000000000000000000000000000000000000000000000000006001600160a01b031663a9059cbb61122d7f0000000000000000000000000000000000000000000000000000000000000000898960008181106111fb57fe5b905060200201356001600160a01b03168a8a600181811061121857fe5b905060200201356001600160a01b03166130e3565b8460008151811061123a57fe5b60200260200101516040518363ffffffff1660e01b815260040180836001600160a01b0316815260200182815260200192505050602060405180830381600087803b15801561128857600080fd5b505af115801561129c573d6000803e3d6000fd5b505050506040513d60208110156112b257600080fd5b50516112ba57fe5b6112f98287878080602002602001604051908101604052809392919081815260200183836020028082843760009201919091525089925061352a915050565b5095945050505050565b60608142811015611354576040805162461bcd60e51b815260206004820152601660248201527514185b98d85ad9549bdd5d195c8e881156141254915160521b604482015290519081900360640190fd5b6113b27f0000000000000000000000000000000000000000000000000000000000000000898888808060200260200160405190810160405280939291908181526020018383602002808284376000920191909152506133f392505050565b915086826001845103815181106113c557fe5b6020026020010151101561140a5760405162461bcd60e51b81526004018080602001828103825260298152602001806145c26029913960400191505060405180910390fd5b6114938686600081811061141a57fe5b905060200201356001600160a01b0316336114797f00000000000000000000000000000000000000000000000000000000000000008a8a600081811061145c57fe5b905060200201356001600160a01b03168b8b600181811061121857fe5b8560008151811061148657fe5b6020026020010151613767565b6114d28287878080602002602001604051908101604052809392919081815260200183836020028082843760009201919091525089925061352a915050565b509695505050505050565b600080824281101561152f576040805162461bcd60e51b815260206004820152601660248201527514185b98d85ad9549bdd5d195c8e881156141254915160521b604482015290519081900360640190fd5b61155e897f00000000000000000000000000000000000000000000000000000000000000008a8a8a308a612a4d565b909350915061156e8986856138d9565b7f00000000000000000000000000000000000000000000000000000000000000006001600160a01b0316632e1a7d4d836040518263ffffffff1660e01b815260040180828152602001915050600060405180830381600087803b1580156115d457600080fd5b505af11580156115e8573d6000803e3d6000fd5b505050506115f68583613a71565b50965096945050505050565b8042811015611651576040805162461bcd60e51b815260206004820152601660248201527514185b98d85ad9549bdd5d195c8e881156141254915160521b604482015290519081900360640190fd5b6001600160a01b037f0000000000000000000000000000000000000000000000000000000000000000168585600019810181811061168b57fe5b905060200201356001600160a01b03166001600160a01b0316146116f6576040805162461bcd60e51b815260206004820152601b60248201527f50616e63616b65526f757465723a20494e56414c49445f504154480000000000604482015290519081900360640190fd5b61174e8585600081811061170657fe5b905060200201356001600160a01b0316336117487f0000000000000000000000000000000000000000000000000000000000000000898960008181106111fb57fe5b8a613767565b61178c858580806020026020016040519081016040528093929190818152602001838360200280828437600092019190915250309250613b69915050565b60007f00000000000000000000000000000000000000000000000000000000000000006001600160a01b03166370a08231306040518263ffffffff1660e01b815260040180826001600160a01b0316815260200191505060206040518083038186803b1580156117fb57600080fd5b505afa15801561180f573d6000803e3d6000fd5b505050506040513d602081101561182557600080fd5b50519050868110156118685760405162461bcd60e51b81526004018080602001828103825260298152602001806145c26029913960400191505060405180910390fd5b7f00000000000000000000000000000000000000000000000000000000000000006001600160a01b0316632e1a7d4d826040518263ffffffff1660e01b815260040180828152602001915050600060405180830381600087803b1580156118ce57600080fd5b505af11580156118e2573d6000803e3d6000fd5b505050506118f08482613a71565b5050505050505050565b8042811015611949576040805162461bcd60e51b815260206004820152601660248201527514185b98d85ad9549bdd5d195c8e881156141254915160521b604482015290519081900360640190fd5b6119598585600081811061170657fe5b60008585600019810181811061196b57fe5b905060200201356001600160a01b03166001600160a01b03166370a08231856040518263ffffffff1660e01b815260040180826001600160a01b0316815260200191505060206040518083038186803b1580156119c757600080fd5b505afa1580156119db573d6000803e3d6000fd5b505050506040513d60208110156119f157600080fd5b50516040805160208881028281018201909352888252929350611a33929091899189918291850190849080828437600092019190915250889250613b69915050565b86611ad68288886000198101818110611a4857fe5b905060200201356001600160a01b03166001600160a01b03166370a08231886040518263ffffffff1660e01b815260040180826001600160a01b0316815260200191505060206040518083038186803b158015611aa457600080fd5b505afa158015611ab8573d6000803e3d6000fd5b505050506040513d6020811015611ace57600080fd5b505190613e8b565b10156118f05760405162461bcd60e51b81526004018080602001828103825260298152602001806145c26029913960400191505060405180910390fd5b60608142811015611b64576040805162461bcd60e51b815260206004820152601660248201527514185b98d85ad9549bdd5d195c8e881156141254915160521b604482015290519081900360640190fd5b6001600160a01b037f00000000000000000000000000000000000000000000000000000000000000001686866000198101818110611b9e57fe5b905060200201356001600160a01b03166001600160a01b031614611c09576040805162461bcd60e51b815260206004820152601b60248201527f50616e63616b65526f757465723a20494e56414c49445f504154480000000000604482015290519081900360640190fd5b611c677f0000000000000000000000000000000000000000000000000000000000000000898888808060200260200160405190810160405280939291908181526020018383602002808284376000920191909152506133f392505050565b91508682600184510381518110611c7a57fe5b60200260200101511015611cbf5760405162461bcd60e51b81526004018080602001828103825260298152602001806145c26029913960400191505060405180910390fd5b611ccf8686600081811061141a57fe5b611d0e8287878080602002602001604051908101604052809392919081815260200183836020028082843760009201919091525030925061352a915050565b7f00000000000000000000000000000000000000000000000000000000000000006001600160a01b0316632e1a7d4d83600185510381518110611d4d57fe5b60200260200101516040518263ffffffff1660e01b815260040180828152602001915050600060405180830381600087803b158015611d8b57600080fd5b505af1158015611d9f573d6000803e3d6000fd5b505050506114d28483600185510381518110611db757fe5b6020026020010151613a71565b6000610e0e848484613ee3565b60608142811015611e22576040805162461bcd60e51b815260206004820152601660248201527514185b98d85ad9549bdd5d195c8e881156141254915160521b604482015290519081900360640190fd5b611e807f0000000000000000000000000000000000000000000000000000000000000000898888808060200260200160405190810160405280939291908181526020018383602002808284376000920191909152506132a692505050565b91508682600081518110611e9057fe5b6020026020010151111561140a5760405162461bcd60e51b81526004018080602001828103825260258152602001806146796025913960400191505060405180910390fd5b60608142811015611f26576040805162461bcd60e51b815260206004820152601660248201527514185b98d85ad9549bdd5d195c8e881156141254915160521b604482015290519081900360640190fd5b7f00000000000000000000000000000000000000000000000000000000000000006001600160a01b031686866000818110611f5d57fe5b905060200201356001600160a01b03166001600160a01b031614611fc8576040805162461bcd60e51b815260206004820152601b60248201527f50616e63616b65526f757465723a20494e56414c49445f504154480000000000604482015290519081900360640190fd5b6120267f0000000000000000000000000000000000000000000000000000000000000000888888808060200260200160405190810160405280939291908181526020018383602002808284376000920191909152506132a692505050565b9150348260008151811061203657fe5b6020026020010151111561207b5760405162461bcd60e51b81526004018080602001828103825260258152602001806146796025913960400191505060405180910390fd5b7f00000000000000000000000000000000000000000000000000000000000000006001600160a01b031663d0e30db0836000815181106120b757fe5b60200260200101516040518263ffffffff1660e01b81526004016000604051808303818588803b1580156120ea57600080fd5b505af11580156120fe573d6000803e3d6000fd5b50505050507f00000000000000000000000000000000000000000000000000000000000000006001600160a01b031663a9059cbb6121637f0000000000000000000000000000000000000000000000000000000000000000898960008181106111fb57fe5b8460008151811061217057fe5b60200260200101516040518363ffffffff1660e01b815260040180836001600160a01b0316815260200182815260200192505050602060405180830381600087803b1580156121be57600080fd5b505af11580156121d2573d6000803e3d6000fd5b505050506040513d60208110156121e857600080fd5b50516121f057fe5b61222f8287878080602002602001604051908101604052809392919081815260200183836020028082843760009201919091525089925061352a915050565b8160008151811061223c57fe5b60200260200101513411156112f9576112f9338360008151811061225c57fe5b60200260200101513403613a71565b606081428110156122bc576040805162461bcd60e51b815260206004820152601660248201527514185b98d85ad9549bdd5d195c8e881156141254915160521b604482015290519081900360640190fd5b6001600160a01b037f000000000000000000000000000000000000000000000000000000000000000016868660001981018181106122f657fe5b905060200201356001600160a01b03166001600160a01b031614612361576040805162461bcd60e51b815260206004820152601b60248201527f50616e63616b65526f757465723a20494e56414c49445f504154480000000000604482015290519081900360640190fd5b6123bf7f0000000000000000000000000000000000000000000000000000000000000000898888808060200260200160405190810160405280939291908181526020018383602002808284376000920191909152506132a692505050565b915086826000815181106123cf57fe5b60200260200101511115611cbf5760405162461bcd60e51b81526004018080602001828103825260258152602001806146796025913960400191505060405180910390fd5b6000610e0e848484613fbb565b60008060008342811015612475576040805162461bcd60e51b815260206004820152601660248201527514185b98d85ad9549bdd5d195c8e881156141254915160521b604482015290519081900360640190fd5b6124a38a7f00000000000000000000000000000000000000000000000000000000000000008b348c8c614061565b909450925060006124f57f00000000000000000000000000000000000000000000000000000000000000008c7f00000000000000000000000000000000000000000000000000000000000000006130e3565b90506125038b338388613767565b7f00000000000000000000000000000000000000000000000000000000000000006001600160a01b031663d0e30db0856040518263ffffffff1660e01b81526004016000604051808303818588803b15801561255e57600080fd5b505af1158015612572573d6000803e3d6000fd5b50505050507f00000000000000000000000000000000000000000000000000000000000000006001600160a01b031663a9059cbb82866040518363ffffffff1660e01b815260040180836001600160a01b0316815260200182815260200192505050602060405180830381600087803b1580156125ee57600080fd5b505af1158015612602573d6000803e3d6000fd5b505050506040513d602081101561261857600080fd5b505161262057fe5b806001600160a01b0316636a627842886040518263ffffffff1660e01b815260040180826001600160a01b03168152602001915050602060405180830381600087803b15801561266f57600080fd5b505af1158015612683573d6000803e3d6000fd5b505050506040513d602081101561269957600080fd5b50519250348410156126b1576126b133853403613a71565b505096509650969350505050565b804281101561270e576040805162461bcd60e51b815260206004820152601660248201527514185b98d85ad9549bdd5d195c8e881156141254915160521b604482015290519081900360640190fd5b7f00000000000000000000000000000000000000000000000000000000000000006001600160a01b03168585600081811061274557fe5b905060200201356001600160a01b03166001600160a01b0316146127b0576040805162461bcd60e51b815260206004820152601b60248201527f50616e63616b65526f757465723a20494e56414c49445f504154480000000000604482015290519081900360640190fd5b60003490507f00000000000000000000000000000000000000000000000000000000000000006001600160a01b031663d0e30db0826040518263ffffffff1660e01b81526004016000604051808303818588803b15801561281057600080fd5b505af1158015612824573d6000803e3d6000fd5b50505050507f00000000000000000000000000000000000000000000000000000000000000006001600160a01b031663a9059cbb6128897f0000000000000000000000000000000000000000000000000000000000000000898960008181106111fb57fe5b836040518363ffffffff1660e01b815260040180836001600160a01b0316815260200182815260200192505050602060405180830381600087803b1580156128d057600080fd5b505af11580156128e4573d6000803e3d6000fd5b505050506040513d60208110156128fa57600080fd5b505161290257fe5b60008686600019810181811061291457fe5b905060200201356001600160a01b03166001600160a01b03166370a08231866040518263ffffffff1660e01b815260040180826001600160a01b0316815260200191505060206040518083038186803b15801561297057600080fd5b505afa158015612984573d6000803e3d6000fd5b505050506040513d602081101561299a57600080fd5b505160408051602089810282810182019093528982529293506129dc9290918a918a918291850190849080828437600092019190915250899250613b69915050565b87611ad682898960001981018181106129f157fe5b905060200201356001600160a01b03166001600160a01b03166370a08231896040518263ffffffff1660e01b815260040180826001600160a01b0316815260200191505060206040518083038186803b158015611aa457600080fd5b6000808242811015612a9f576040805162461bcd60e51b815260206004820152601660248201527514185b98d85ad9549bdd5d195c8e881156141254915160521b604482015290519081900360640190fd5b6000612acc7f00000000000000000000000000000000000000000000000000000000000000008c8c6130e3565b604080516323b872dd60e01b81523360048201526001600160a01b03831660248201819052604482018d9052915192935090916323b872dd916064808201926020929091908290030181600087803b158015612b2757600080fd5b505af1158015612b3b573d6000803e3d6000fd5b505050506040513d6020811015612b5157600080fd5b5050604080517f89afcb440000000000000000000000000000000000000000000000000000000081526001600160a01b03888116600483015282516000938493928616926389afcb44926024808301939282900301818787803b158015612bb757600080fd5b505af1158015612bcb573d6000803e3d6000fd5b505050506040513d6040811015612be157600080fd5b50805160209091015190925090506000612bfb8e8e6142f2565b509050806001600160a01b03168e6001600160a01b031614612c1e578183612c21565b82825b90975095508a871015612c655760405162461bcd60e51b815260040180806020018281038252602481526020018061460e6024913960400191505060405180910390fd5b89861015612ca45760405162461bcd60e51b81526004018080602001828103825260248152602001806146e86024913960400191505060405180910390fd5b505050505097509795505050505050565b7f000000000000000000000000000000000000000000000000000000000000000081565b6060610e437f000000000000000000000000000000000000000000000000000000000000000084846133f3565b60008060008342811015612d5a576040805162461bcd60e51b815260206004820152601660248201527514185b98d85ad9549bdd5d195c8e881156141254915160521b604482015290519081900360640190fd5b612d688c8c8c8c8c8c614061565b90945092506000612d9a7f00000000000000000000000000000000000000000000000000000000000000008e8e6130e3565b9050612da88d338388613767565b612db48c338387613767565b806001600160a01b0316636a627842886040518263ffffffff1660e01b815260040180826001600160a01b03168152602001915050602060405180830381600087803b158015612e0357600080fd5b505af1158015612e17573d6000803e3d6000fd5b505050506040513d6020811015612e2d57600080fd5b5051949d939c50939a509198505050505050505050565b60008142811015612e95576040805162461bcd60e51b815260206004820152601660248201527514185b98d85ad9549bdd5d195c8e881156141254915160521b604482015290519081900360640190fd5b612ec4887f00000000000000000000000000000000000000000000000000000000000000008989893089612a4d565b905080925050612f4d88858a6001600160a01b03166370a08231306040518263ffffffff1660e01b815260040180826001600160a01b0316815260200191505060206040518083038186803b158015612f1c57600080fd5b505afa158015612f30573d6000803e3d6000fd5b505050506040513d6020811015612f4657600080fd5b50516138d9565b7f00000000000000000000000000000000000000000000000000000000000000006001600160a01b0316632e1a7d4d836040518263ffffffff1660e01b815260040180828152602001915050600060405180830381600087803b158015612fb357600080fd5b505af1158015612fc7573d6000803e3d6000fd5b505050506114d28483613a71565b6000806130237f00000000000000000000000000000000000000000000000000000000000000008d7f00000000000000000000000000000000000000000000000000000000000000006130e3565b9050600086613032578b613036565b6000195b6040805163d505accf60e01b815233600482015230602482015260448101839052606481018b905260ff8916608482015260a4810188905260c4810187905290519192506001600160a01b0384169163d505accf9160e48082019260009290919082900301818387803b1580156130ac57600080fd5b505af11580156130c0573d6000803e3d6000fd5b505050506130d28d8d8d8d8d8d612e44565b9d9c50505050505050505050505050565b60008060006130f285856142f2565b604080517fffffffffffffffffffffffffffffffffffffffff000000000000000000000000606094851b811660208084019190915293851b81166034830152825160288184030181526048830184528051908501207fff0000000000000000000000000000000000000000000000000000000000000060688401529a90941b9093166069840152607d8301989098527fe26f1edeb3c91a91d1eabfa8c3a718cd73b3b1abe7d4228919cb302be3985e52609d808401919091528851808403909101815260bd909201909752805196019590952095945050505050565b600080841161320e5760405162461bcd60e51b815260040180806020018281038252602981526020018061456f6029913960400191505060405180910390fd5b60008311801561321e5750600082115b6132595760405162461bcd60e51b815260040180806020018281038252602681526020018061469e6026913960400191505060405180910390fd5b6000613267856103e66143d0565b9050600061327582856143d0565b9050600061328f83613289886103e86143d0565b9061443c565b905080828161329a57fe5b04979650505050505050565b60606002825110156132ff576040805162461bcd60e51b815260206004820152601c60248201527f50616e63616b654c6962726172793a20494e56414c49445f5041544800000000604482015290519081900360640190fd5b815167ffffffffffffffff8111801561331757600080fd5b50604051908082528060200260200182016040528015613341578160200160208202803683370190505b509050828160018351038151811061335557fe5b60209081029190910101528151600019015b80156133eb576000806133a48786600186038151811061338357fe5b602002602001015187868151811061339757fe5b6020026020010151614494565b915091506133c68484815181106133b757fe5b60200260200101518383613ee3565b8460018503815181106133d557fe5b6020908102919091010152505060001901613367565b509392505050565b606060028251101561344c576040805162461bcd60e51b815260206004820152601c60248201527f50616e63616b654c6962726172793a20494e56414c49445f5041544800000000604482015290519081900360640190fd5b815167ffffffffffffffff8111801561346457600080fd5b5060405190808252806020026020018201604052801561348e578160200160208202803683370190505b509050828160008151811061349f57fe5b60200260200101818152505060005b60018351038110156133eb576000806134e4878685815181106134cd57fe5b602002602001015187866001018151811061339757fe5b915091506135068484815181106134f757fe5b602002602001015183836131ce565b84846001018151811061351557fe5b602090810291909101015250506001016134ae565b60005b60018351038110156137615760008084838151811061354857fe5b602002602001015185846001018151811061355f57fe5b602002602001015191509150600061357783836142f2565b509050600087856001018151811061358b57fe5b60200260200101519050600080836001600160a01b0316866001600160a01b0316146135b9578260006135bd565b6000835b91509150600060028a510388106135d45788613615565b6136157f0000000000000000000000000000000000000000000000000000000000000000878c8b6002018151811061360857fe5b60200260200101516130e3565b90506136427f000000000000000000000000000000000000000000000000000000000000000088886130e3565b6001600160a01b031663022c0d9f84848460006040519080825280601f01601f19166020018201604052801561367f576020820181803683370190505b506040518563ffffffff1660e01b815260040180858152602001848152602001836001600160a01b0316815260200180602001828103825283818151815260200191508051906020019080838360005b838110156136e75781810151838201526020016136cf565b50505050905090810190601f1680156137145780820380516001836020036101000a031916815260200191505b5095505050505050600060405180830381600087803b15801561373657600080fd5b505af115801561374a573d6000803e3d6000fd5b50506001909901985061352d975050505050505050565b50505050565b604080516001600160a01b0385811660248301528481166044830152606480830185905283518084039091018152608490920183526020820180517bffffffffffffffffffffffffffffffffffffffffffffffffffffffff166323b872dd60e01b17815292518251600094606094938a169392918291908083835b602083106138015780518252601f1990920191602091820191016137e2565b6001836020036101000a0380198251168184511680821785525050505050509050019150506000604051808303816000865af19150503d8060008114613863576040519150601f19603f3d011682016040523d82523d6000602084013e613868565b606091505b5091509150818015613896575080511580613896575080806020019051602081101561389357600080fd5b50515b6138d15760405162461bcd60e51b81526004018080602001828103825260248152602001806146c46024913960400191505060405180910390fd5b505050505050565b604080516001600160a01b038481166024830152604480830185905283518084039091018152606490920183526020820180517bffffffffffffffffffffffffffffffffffffffffffffffffffffffff167fa9059cbb00000000000000000000000000000000000000000000000000000000178152925182516000946060949389169392918291908083835b602083106139845780518252601f199092019160209182019101613965565b6001836020036101000a0380198251168184511680821785525050505050509050019150506000604051808303816000865af19150503d80600081146139e6576040519150601f19603f3d011682016040523d82523d6000602084013e6139eb565b606091505b5091509150818015613a19575080511580613a195750808060200190516020811015613a1657600080fd5b50515b613a6a576040805162461bcd60e51b815260206004820152601f60248201527f5472616e7366657248656c7065723a205452414e534645525f4641494c454400604482015290519081900360640190fd5b5050505050565b604080516000808252602082019092526001600160a01b0384169083906040518082805190602001908083835b60208310613abd5780518252601f199092019160209182019101613a9e565b6001836020036101000a03801982511681845116808217855250505050505090500191505060006040518083038185875af1925050503d8060008114613b1f576040519150601f19603f3d011682016040523d82523d6000602084013e613b24565b606091505b5050905080613b645760405162461bcd60e51b81526004018080602001828103825260248152602001806146556024913960400191505060405180910390fd5b505050565b60005b6001835103811015613b6457600080848381518110613b8757fe5b6020026020010151858460010181518110613b9e57fe5b6020026020010151915091506000613bb683836142f2565b5090506000613be67f000000000000000000000000000000000000000000000000000000000000000085856130e3565b9050600080600080846001600160a01b0316630902f1ac6040518163ffffffff1660e01b815260040160606040518083038186803b158015613c2757600080fd5b505afa158015613c3b573d6000803e3d6000fd5b505050506040513d6060811015613c5157600080fd5b5080516020909101516dffffffffffffffffffffffffffff91821693501690506000806001600160a01b038a811690891614613c8e578284613c91565b83835b91509150613ce6828b6001600160a01b03166370a082318a6040518263ffffffff1660e01b815260040180826001600160a01b0316815260200191505060206040518083038186803b158015611aa457600080fd5b9550613cf38683836131ce565b945050505050600080856001600160a01b0316886001600160a01b031614613d1d57826000613d21565b6000835b91509150600060028c51038a10613d38578a613d6c565b613d6c7f0000000000000000000000000000000000000000000000000000000000000000898e8d6002018151811061360857fe5b60408051600080825260208201928390527f022c0d9f00000000000000000000000000000000000000000000000000000000835260248201878152604483018790526001600160a01b038086166064850152608060848501908152845160a48601819052969750908c169563022c0d9f958a958a958a9591949193919260c486019290918190849084905b83811015613e0f578181015183820152602001613df7565b50505050905090810190601f168015613e3c5780820380516001836020036101000a031916815260200191505b5095505050505050600060405180830381600087803b158015613e5e57600080fd5b505af1158015613e72573d6000803e3d6000fd5b50506001909b019a50613b6c9950505050505050505050565b80820382811115610e46576040805162461bcd60e51b815260206004820152601560248201527f64732d6d6174682d7375622d756e646572666c6f770000000000000000000000604482015290519081900360640190fd5b6000808411613f235760405162461bcd60e51b815260040180806020018281038252602a815260200180614598602a913960400191505060405180910390fd5b600083118015613f335750600082115b613f6e5760405162461bcd60e51b815260040180806020018281038252602681526020018061469e6026913960400191505060405180910390fd5b6000613f866103e8613f8086886143d0565b906143d0565b90506000613f9a6103e6613f808689613e8b565b9050613fb16001828481613faa57fe5b049061443c565b9695505050505050565b6000808411613ffb5760405162461bcd60e51b81526004018080602001828103825260238152602001806146326023913960400191505060405180910390fd5b60008311801561400b5750600082115b6140465760405162461bcd60e51b815260040180806020018281038252602681526020018061469e6026913960400191505060405180910390fd5b8261405185846143d0565b8161405857fe5b04949350505050565b60008060006001600160a01b03167f00000000000000000000000000000000000000000000000000000000000000006001600160a01b031663e6a439058a8a6040518363ffffffff1660e01b815260040180836001600160a01b03168152602001826001600160a01b031681526020019250505060206040518083038186803b1580156140ed57600080fd5b505afa158015614101573d6000803e3d6000fd5b505050506040513d602081101561411757600080fd5b50516001600160a01b031614156141d5577f00000000000000000000000000000000000000000000000000000000000000006001600160a01b031663c9c6539689896040518363ffffffff1660e01b815260040180836001600160a01b03168152602001826001600160a01b0316815260200192505050602060405180830381600087803b1580156141a857600080fd5b505af11580156141bc573d6000803e3d6000fd5b505050506040513d60208110156141d257600080fd5b50505b6000806142037f00000000000000000000000000000000000000000000000000000000000000008b8b614494565b91509150816000148015614215575080155b15614225578793508692506142e5565b6000614232898484613fbb565b9050878111614285578581101561427a5760405162461bcd60e51b81526004018080602001828103825260248152602001806146e86024913960400191505060405180910390fd5b8894509250826142e3565b6000614292898486613fbb565b90508981111561429e57fe5b878110156142dd5760405162461bcd60e51b815260040180806020018281038252602481526020018061460e6024913960400191505060405180910390fd5b94508793505b505b5050965096945050505050565b600080826001600160a01b0316846001600160a01b031614156143465760405162461bcd60e51b81526004018080602001828103825260238152602001806145eb6023913960400191505060405180910390fd5b826001600160a01b0316846001600160a01b031610614366578284614369565b83835b90925090506001600160a01b0382166143c9576040805162461bcd60e51b815260206004820152601c60248201527f50616e63616b654c6962726172793a205a45524f5f4144445245535300000000604482015290519081900360640190fd5b9250929050565b60008115806143eb575050808202828282816143e857fe5b04145b610e46576040805162461bcd60e51b815260206004820152601460248201527f64732d6d6174682d6d756c2d6f766572666c6f77000000000000000000000000604482015290519081900360640190fd5b80820182811015610e46576040805162461bcd60e51b815260206004820152601460248201527f64732d6d6174682d6164642d6f766572666c6f77000000000000000000000000604482015290519081900360640190fd5b60008060006144a385856142f2565b5090506144b18686866130e3565b506000806144c08888886130e3565b6001600160a01b0316630902f1ac6040518163ffffffff1660e01b815260040160606040518083038186803b1580156144f857600080fd5b505afa15801561450c573d6000803e3d6000fd5b505050506040513d606081101561452257600080fd5b5080516020909101516dffffffffffffffffffffffffffff91821693501690506001600160a01b038781169084161461455c57808261455f565b81815b9099909850965050505050505056fe50616e63616b654c6962726172793a20494e53554646494349454e545f494e5055545f414d4f554e5450616e63616b654c6962726172793a20494e53554646494349454e545f4f55545055545f414d4f554e5450616e63616b65526f757465723a20494e53554646494349454e545f4f55545055545f414d4f554e5450616e63616b654c6962726172793a204944454e544943414c5f41444452455353455350616e63616b65526f757465723a20494e53554646494349454e545f415f414d4f554e5450616e63616b654c6962726172793a20494e53554646494349454e545f414d4f554e545472616e7366657248656c7065723a204b4c41595f5452414e534645525f4641494c454450616e63616b65526f757465723a204558434553534956455f494e5055545f414d4f554e5450616e63616b654c6962726172793a20494e53554646494349454e545f4c49515549444954595472616e7366657248656c7065723a205452414e534645525f46524f4d5f4641494c454450616e63616b65526f757465723a20494e53554646494349454e545f425f414d4f554e54a2646970667358221220f1f22e94d993d532737229f689bd328fef8be55e826d93e875b61dd40f968d0164736f6c634300060c0033",
  "immutableReferences": {
    "2020": [
      {
        "length": 32,
        "start": 3319
      },
      {
        "length": 32,
        "start": 3613
      },
      {
        "length": 32,
        "start": 3670
      },
      {
        "length": 32,
        "start": 4194
      },
      {
        "length": 32,
        "start": 4559
      },
      {
        "length": 32,
        "start": 4953
      },
      {
        "length": 32,
        "start": 5168
      },
      {
        "length": 32,
        "start": 5916
      },
      {
        "length": 32,
        "start": 7182
      },
      {
        "length": 32,
        "start": 7719
      },
      {
        "length": 32,
        "start": 8141
      },
      {
        "length": 32,
        "start": 8503
      },
      {
        "length": 32,
        "start": 9062
      },
      {
        "length": 32,
        "start": 9391
      },
      {
        "length": 32,
        "start": 10333
      },
      {
        "length": 32,
        "start": 10918
      },
      {
        "length": 32,
        "start": 11447
      },
      {
        "length": 32,
        "start": 11488
      },
      {
        "length": 32,
        "start": 11636
      },
      {
        "length": 32,
        "start": 12253
      },
      {
        "length": 32,
        "start": 13785
      },
      {
        "length": 32,
        "start": 13852
      },
      {
        "length": 32,
        "start": 15296
      },
      {
        "length": 32,
        "start": 15677
      },
      {
        "length": 32,
        "start": 16497
      },
      {
        "length": 32,
        "start": 16682
      },
      {
        "length": 32,
        "start": 16861
      }
    ],
    "2023": [
      {
        "length": 32,
        "start": 415
      },
      {
        "length": 32,
        "start": 3353
      },
      {
        "length": 32,
        "start": 3912
      },
      {
        "length": 32,
        "start": 4029
      },
      {
        "length": 32,
        "start": 4373
      },
      {
        "length": 32,
        "start": 4509
      },
      {
        "length": 32,
        "start": 5429
      },
      {
        "length": 32,
        "start": 5488
      },
      {
        "length": 32,
        "start": 5723
      },
      {
        "length": 32,
        "start": 6032
      },
      {
        "length": 32,
        "start": 6250
      },
      {
        "length": 32,
        "start": 7022
      },
      {
        "length": 32,
        "start": 7440
      },
      {
        "length": 32,
        "start": 7976
      },
      {
        "length": 32,
        "start": 8317
      },
      {
        "length": 32,
        "start": 8453
      },
      {
        "length": 32,
        "start": 8902
      },
      {
        "length": 32,
        "start": 9339
      },
      {
        "length": 32,
        "start": 9425
      },
      {
        "length": 32,
        "start": 9477
      },
      {
        "length": 32,
        "start": 9593
      },
      {
        "length": 32,
        "start": 10000
      },
      {
        "length": 32,
        "start": 10167
      },
      {
        "length": 32,
        "start": 10283
      },
      {
        "length": 32,
        "start": 11931
      },
      {
        "length": 32,
        "start": 12111
      },
      {
        "length": 32,
        "start": 12287
      }
    ]
  },
  "source": "// SPDX-License-Identifier: MIT\npragma solidity =0.6.12;\n\nimport './interfaces/IPancakeFactory.sol';\nimport './libraries/TransferHelper.sol';\n\nimport './interfaces/IPancakeRouter02.sol';\nimport './libraries/PancakeLibrary.sol';\nimport './libraries/SafeMath.sol';\nimport './interfaces/IERC20.sol';\nimport './interfaces/IWKLAY.sol';\n\ncontract PancakeRouter is IPancakeRouter02 {\n    using SafeMath for uint;\n\n    address public immutable override factory;\n    address public immutable override WKLAY;\n\n    modifier ensure(uint deadline) {\n        require(deadline >= block.timestamp, 'PancakeRouter: EXPIRED');\n        _;\n    }\n\n    constructor(address _factory, address _WKLAY) public {\n        factory = _factory;\n        WKLAY = _WKLAY;\n    }\n\n    receive() external payable {\n        assert(msg.sender == WKLAY); // only accept KLAY via fallback from the WKLAY contract\n    }\n\n    // **** ADD LIQUIDITY ****\n    function _addLiquidity(\n        address tokenA,\n        address tokenB,\n        uint amountADesired,\n        uint amountBDesired,\n        uint amountAMin,\n        uint amountBMin\n    ) internal virtual returns (uint amountA, uint amountB) {\n        // create the pair if it doesn't exist yet\n        if (IPancakeFactory(factory).getPair(tokenA, tokenB) == address(0)) {\n            IPancakeFactory(factory).createPair(tokenA, tokenB);\n        }\n        (uint reserveA, uint reserveB) = PancakeLibrary.getReserves(factory, tokenA, tokenB);\n        if (reserveA == 0 && reserveB == 0) {\n            (amountA, amountB) = (amountADesired, amountBDesired);\n        } else {\n            uint amountBOptimal = PancakeLibrary.quote(amountADesired, reserveA, reserveB);\n            if (amountBOptimal <= amountBDesired) {\n                require(amountBOptimal >= amountBMin, 'PancakeRouter: INSUFFICIENT_B_AMOUNT');\n                (amountA, amountB) = (amountADesired, amountBOptimal);\n            } else {\n                uint amountAOptimal = PancakeLibrary.quote(amountBDesired, reserveB, reserveA);\n                assert(amountAOptimal <= amountADesired);\n                require(amountAOptimal >= amountAMin, 'PancakeRouter: INSUFFICIENT_A_AMOUNT');\n                (amountA, amountB) = (amountAOptimal, amountBDesired);\n            }\n        }\n    }\n    function addLiquidity(\n        address tokenA,\n        address tokenB,\n        uint amountADesired,\n        uint amountBDesired,\n        uint amountAMin,\n        uint amountBMin,\n        address to,\n        uint deadline\n    ) external virtual override ensure(deadline) returns (uint amountA, uint amountB, uint liquidity) {\n        (amountA, amountB) = _addLiquidity(tokenA, tokenB, amountADesired, amountBDesired, amountAMin, amountBMin);\n        address pair = PancakeLibrary.pairFor(factory, tokenA, tokenB);\n        TransferHelper.safeTransferFrom(tokenA, msg.sender, pair, amountA);\n        TransferHelper.safeTransferFrom(tokenB, msg.sender, pair, amountB);\n        liquidity = IPancakePair(pair).mint(to);\n    }\n    function addLiquidityKLAY(\n        address token,\n        uint amountTokenDesired,\n        uint amountTokenMin,\n        uint amountKLAYMin,\n        address to,\n        uint deadline\n    ) external virtual override payable ensure(deadline) returns (uint amountToken, uint amountKLAY, uint liquidity) {\n        (amountToken, amountKLAY) = _addLiquidity(\n            token,\n            WKLAY,\n            amountTokenDesired,\n            msg.value,\n            amountTokenMin,\n            amountKLAYMin\n        );\n        address pair = PancakeLibrary.pairFor(factory, token, WKLAY);\n        TransferHelper.safeTransferFrom(token, msg.sender, pair, amountToken);\n        IWKLAY(WKLAY).deposit{value: amountKLAY}();\n        assert(IWKLAY(WKLAY).transfer(pair, amountKLAY));\n        liquidity = IPancakePair(pair).mint(to);\n        // refund dust klay, if any\n        if (msg.value > amountKLAY) TransferHelper.safeTransferKLAY(msg.sender, msg.value - amountKLAY);\n    }\n\n    // **** REMOVE LIQUIDITY ****\n    function removeLiquidity(\n        address tokenA,\n        address tokenB,\n        uint liquidity,\n        uint amountAMin,\n        uint amountBMin,\n        address to,\n        uint deadline\n    ) public virtual override ensure(deadline) returns (uint amountA, uint amountB) {\n        address pair = PancakeLibrary.pairFor(factory, tokenA, tokenB);\n        IPancakePair(pair).transferFrom(msg.sender, pair, liquidity); // send liquidity to pair\n        (uint amount0, uint amount1) = IPancakePair(pair).burn(to);\n        (address token0,) = PancakeLibrary.sortTokens(tokenA, tokenB);\n        (amountA, amountB) = tokenA == token0 ? (amount0, amount1) : (amount1, amount0);\n        require(amountA >= amountAMin, 'PancakeRouter: INSUFFICIENT_A_AMOUNT');\n        require(amountB >= amountBMin, 'PancakeRouter: INSUFFICIENT_B_AMOUNT');\n    }\n    function removeLiquidityKLAY(\n        address token,\n        uint liquidity,\n        uint amountTokenMin,\n        uint amountKLAYMin,\n        address to,\n        uint deadline\n    ) public virtual override ensure(deadline) returns (uint amountToken, uint amountKLAY) {\n        (amountToken, amountKLAY) = removeLiquidity(\n            token,\n            WKLAY,\n            liquidity,\n            amountTokenMin,\n            amountKLAYMin,\n            address(this),\n            deadline\n        );\n        TransferHelper.safeTransfer(token, to, amountToken);\n        IWKLAY(WKLAY).withdraw(amountKLAY);\n        TransferHelper.safeTransferKLAY(to, amountKLAY);\n    }\n    function removeLiquidityWithPermit(\n        address tokenA,\n        address tokenB,\n        uint liquidity,\n        uint amountAMin,\n        uint amountBMin,\n        address to,\n        uint deadline,\n        bool approveMax, uint8 v, bytes32 r, bytes32 s\n    ) external virtual override returns (uint amountA, uint amountB) {\n        address pair = PancakeLibrary.pairFor(factory, tokenA, tokenB);\n        uint value = approveMax ? uint(-1) : liquidity;\n        IPancakePair(pair).permit(msg.sender, address(this), value, deadline, v, r, s);\n        (amountA, amountB) = removeLiquidity(tokenA, tokenB, liquidity, amountAMin, amountBMin, to, deadline);\n    }\n    function removeLiquidityKLAYWithPermit(\n        address token,\n        uint liquidity,\n        uint amountTokenMin,\n        uint amountKLAYMin,\n        address to,\n        uint deadline,\n        bool approveMax, uint8 v, bytes32 r, bytes32 s\n    ) external virtual override returns (uint amountToken, uint amountKLAY) {\n        address pair = PancakeLibrary.pairFor(factory, token, WKLAY);\n        uint value = approveMax ? uint(-1) : liquidity;\n        IPancakePair(pair).permit(msg.sender, address(this), value, deadline, v, r, s);\n        (amountToken, amountKLAY) = removeLiquidityKLAY(token, liquidity, amountTokenMin, amountKLAYMin, to, deadline);\n    }\n\n    // **** REMOVE LIQUIDITY (supporting fee-on-transfer tokens) ****\n    function removeLiquidityKLAYSupportingFeeOnTransferTokens(\n        address token,\n        uint liquidity,\n        uint amountTokenMin,\n        uint amountKLAYMin,\n        address to,\n        uint deadline\n    ) public virtual override ensure(deadline) returns (uint amountKLAY) {\n        (, amountKLAY) = removeLiquidity(\n            token,\n            WKLAY,\n            liquidity,\n            amountTokenMin,\n            amountKLAYMin,\n            address(this),\n            deadline\n        );\n        TransferHelper.safeTransfer(token, to, IERC20(token).balanceOf(address(this)));\n        IWKLAY(WKLAY).withdraw(amountKLAY);\n        TransferHelper.safeTransferKLAY(to, amountKLAY);\n    }\n    function removeLiquidityKLAYWithPermitSupportingFeeOnTransferTokens(\n        address token,\n        uint liquidity,\n        uint amountTokenMin,\n        uint amountKLAYMin,\n        address to,\n        uint deadline,\n        bool approveMax, uint8 v, bytes32 r, bytes32 s\n    ) external virtual override returns (uint amountKLAY) {\n        address pair = PancakeLibrary.pairFor(factory, token, WKLAY);\n        uint value = approveMax ? uint(-1) : liquidity;\n        IPancakePair(pair).permit(msg.sender, address(this), value, deadline, v, r, s);\n        amountKLAY = removeLiquidityKLAYSupportingFeeOnTransferTokens(\n            token, liquidity, amountTokenMin, amountKLAYMin, to, deadline\n        );\n    }\n\n    // **** SWAP ****\n    // requires the initial amount to have already been sent to the first pair\n    function _swap(uint[] memory amounts, address[] memory path, address _to) internal virtual {\n        for (uint i; i < path.length - 1; i++) {\n            (address input, address output) = (path[i], path[i + 1]);\n            (address token0,) = PancakeLibrary.sortTokens(input, output);\n            uint amountOut = amounts[i + 1];\n            (uint amount0Out, uint amount1Out) = input == token0 ? (uint(0), amountOut) : (amountOut, uint(0));\n            address to = i < path.length - 2 ? PancakeLibrary.pairFor(factory, output, path[i + 2]) : _to;\n            IPancakePair(PancakeLibrary.pairFor(factory, input, output)).swap(\n                amount0Out, amount1Out, to, new bytes(0)\n            );\n        }\n    }\n    function swapExactTokensForTokens(\n        uint amountIn,\n        uint amountOutMin,\n        address[] calldata path,\n        address to,\n        uint deadline\n    ) external virtual override ensure(deadline) returns (uint[] memory amounts) {\n        amounts = PancakeLibrary.getAmountsOut(factory, amountIn, path);\n        require(amounts[amounts.length - 1] >= amountOutMin, 'PancakeRouter: INSUFFICIENT_OUTPUT_AMOUNT');\n        TransferHelper.safeTransferFrom(\n            path[0], msg.sender, PancakeLibrary.pairFor(factory, path[0], path[1]), amounts[0]\n        );\n        _swap(amounts, path, to);\n    }\n    function swapTokensForExactTokens(\n        uint amountOut,\n        uint amountInMax,\n        address[] calldata path,\n        address to,\n        uint deadline\n    ) external virtual override ensure(deadline) returns (uint[] memory amounts) {\n        amounts = PancakeLibrary.getAmountsIn(factory, amountOut, path);\n        require(amounts[0] <= amountInMax, 'PancakeRouter: EXCESSIVE_INPUT_AMOUNT');\n        TransferHelper.safeTransferFrom(\n            path[0], msg.sender, PancakeLibrary.pairFor(factory, path[0], path[1]), amounts[0]\n        );\n        _swap(amounts, path, to);\n    }\n    function swapExactKLAYForTokens(uint amountOutMin, address[] calldata path, address to, uint deadline)\n        external\n        virtual\n        override\n        payable\n        ensure(deadline)\n        returns (uint[] memory amounts)\n    {\n        require(path[0] == WKLAY, 'PancakeRouter: INVALID_PATH');\n        amounts = PancakeLibrary.getAmountsOut(factory, msg.value, path);\n        require(amounts[amounts.length - 1] >= amountOutMin, 'PancakeRouter: INSUFFICIENT_OUTPUT_AMOUNT');\n        IWKLAY(WKLAY).deposit{value: amounts[0]}();\n        assert(IWKLAY(WKLAY).transfer(PancakeLibrary.pairFor(factory, path[0], path[1]), amounts[0]));\n        _swap(amounts, path, to);\n    }\n    function swapTokensForExactKLAY(uint amountOut, uint amountInMax, address[] calldata path, address to, uint deadline)\n        external\n        virtual\n        override\n        ensure(deadline)\n        returns (uint[] memory amounts)\n    {\n        require(path[path.length - 1] == WKLAY, 'PancakeRouter: INVALID_PATH');\n        amounts = PancakeLibrary.getAmountsIn(factory, amountOut, path);\n        require(amounts[0] <= amountInMax, 'PancakeRouter: EXCESSIVE_INPUT_AMOUNT');\n        TransferHelper.safeTransferFrom(\n            path[0], msg.sender, PancakeLibrary.pairFor(factory, path[0], path[1]), amounts[0]\n        );\n        _swap(amounts, path, address(this));\n        IWKLAY(WKLAY).withdraw(amounts[amounts.length - 1]);\n        TransferHelper.safeTransferKLAY(to, amounts[amounts.length - 1]);\n    }\n    function swapExactTokensForKLAY(uint amountIn, uint amountOutMin, address[] calldata path, address to, uint deadline)\n        external\n        virtual\n        override\n        ensure(deadline)\n        returns (uint[] memory amounts)\n    {\n        require(path[path.length - 1] == WKLAY, 'PancakeRouter: INVALID_PATH');\n        amounts = PancakeLibrary.getAmountsOut(factory, amountIn, path);\n        require(amounts[amounts.length - 1] >= amountOutMin, 'PancakeRouter: INSUFFICIENT_OUTPUT_AMOUNT');\n        TransferHelper.safeTransferFrom(\n            path[0], msg.sender, PancakeLibrary.pairFor(factory, path[0], path[1]), amounts[0]\n        );\n        _swap(amounts, path, address(this));\n        IWKLAY(WKLAY).withdraw(amounts[amounts.length - 1]);\n        TransferHelper.safeTransferKLAY(to, amounts[amounts.length - 1]);\n    }\n    function swapKLAYForExactTokens(uint amountOut, address[] calldata path, address to, uint deadline)\n        external\n        virtual\n        override\n        payable\n        ensure(deadline)\n        returns (uint[] memory amounts)\n    {\n        require(path[0] == WKLAY, 'PancakeRouter: INVALID_PATH');\n        amounts = PancakeLibrary.getAmountsIn(factory, amountOut, path);\n        require(amounts[0] <= msg.value, 'PancakeRouter: EXCESSIVE_INPUT_AMOUNT');\n        IWKLAY(WKLAY).deposit{value: amounts[0]}();\n        assert(IWKLAY(WKLAY).transfer(PancakeLibrary.pairFor(factory, path[0], path[1]), amounts[0]));\n        _swap(amounts, path, to);\n        // refund dust klay, if any\n        if (msg.value > amounts[0]) TransferHelper.safeTransferKLAY(msg.sender, msg.value - amounts[0]);\n    }\n\n    // **** SWAP (supporting fee-on-transfer tokens) ****\n    // requires the initial amount to have already been sent to the first pair\n    function _swapSupportingFeeOnTransferTokens(address[] memory path, address _to) internal virtual {\n        for (uint i; i < path.length - 1; i++) {\n            (address input, address output) = (path[i], path[i + 1]);\n            (address token0,) = PancakeLibrary.sortTokens(input, output);\n            IPancakePair pair = IPancakePair(PancakeLibrary.pairFor(factory, input, output));\n            uint amountInput;\n            uint amountOutput;\n            { // scope to avoid stack too deep errors\n            (uint reserve0, uint reserve1,) = pair.getReserves();\n            (uint reserveInput, uint reserveOutput) = input == token0 ? (reserve0, reserve1) : (reserve1, reserve0);\n            amountInput = IERC20(input).balanceOf(address(pair)).sub(reserveInput);\n            amountOutput = PancakeLibrary.getAmountOut(amountInput, reserveInput, reserveOutput);\n            }\n            (uint amount0Out, uint amount1Out) = input == token0 ? (uint(0), amountOutput) : (amountOutput, uint(0));\n            address to = i < path.length - 2 ? PancakeLibrary.pairFor(factory, output, path[i + 2]) : _to;\n            pair.swap(amount0Out, amount1Out, to, new bytes(0));\n        }\n    }\n    function swapExactTokensForTokensSupportingFeeOnTransferTokens(\n        uint amountIn,\n        uint amountOutMin,\n        address[] calldata path,\n        address to,\n        uint deadline\n    ) external virtual override ensure(deadline) {\n        TransferHelper.safeTransferFrom(\n            path[0], msg.sender, PancakeLibrary.pairFor(factory, path[0], path[1]), amountIn\n        );\n        uint balanceBefore = IERC20(path[path.length - 1]).balanceOf(to);\n        _swapSupportingFeeOnTransferTokens(path, to);\n        require(\n            IERC20(path[path.length - 1]).balanceOf(to).sub(balanceBefore) >= amountOutMin,\n            'PancakeRouter: INSUFFICIENT_OUTPUT_AMOUNT'\n        );\n    }\n    function swapExactKLAYForTokensSupportingFeeOnTransferTokens(\n        uint amountOutMin,\n        address[] calldata path,\n        address to,\n        uint deadline\n    )\n        external\n        virtual\n        override\n        payable\n        ensure(deadline)\n    {\n        require(path[0] == WKLAY, 'PancakeRouter: INVALID_PATH');\n        uint amountIn = msg.value;\n        IWKLAY(WKLAY).deposit{value: amountIn}();\n        assert(IWKLAY(WKLAY).transfer(PancakeLibrary.pairFor(factory, path[0], path[1]), amountIn));\n        uint balanceBefore = IERC20(path[path.length - 1]).balanceOf(to);\n        _swapSupportingFeeOnTransferTokens(path, to);\n        require(\n            IERC20(path[path.length - 1]).balanceOf(to).sub(balanceBefore) >= amountOutMin,\n            'PancakeRouter: INSUFFICIENT_OUTPUT_AMOUNT'\n        );\n    }\n    function swapExactTokensForKLAYSupportingFeeOnTransferTokens(\n        uint amountIn,\n        uint amountOutMin,\n        address[] calldata path,\n        address to,\n        uint deadline\n    )\n        external\n        virtual\n        override\n        ensure(deadline)\n    {\n        require(path[path.length - 1] == WKLAY, 'PancakeRouter: INVALID_PATH');\n        TransferHelper.safeTransferFrom(\n            path[0], msg.sender, PancakeLibrary.pairFor(factory, path[0], path[1]), amountIn\n        );\n        _swapSupportingFeeOnTransferTokens(path, address(this));\n        uint amountOut = IERC20(WKLAY).balanceOf(address(this));\n        require(amountOut >= amountOutMin, 'PancakeRouter: INSUFFICIENT_OUTPUT_AMOUNT');\n        IWKLAY(WKLAY).withdraw(amountOut);\n        TransferHelper.safeTransferKLAY(to, amountOut);\n    }\n\n    // **** LIBRARY FUNCTIONS ****\n    function quote(uint amountA, uint reserveA, uint reserveB) public pure virtual override returns (uint amountB) {\n        return PancakeLibrary.quote(amountA, reserveA, reserveB);\n    }\n\n    function getAmountOut(uint amountIn, uint reserveIn, uint reserveOut)\n        public\n        pure\n        virtual\n        override\n        returns (uint amountOut)\n    {\n        return PancakeLibrary.getAmountOut(amountIn, reserveIn, reserveOut);\n    }\n\n    function getAmountIn(uint amountOut, uint reserveIn, uint reserveOut)\n        public\n        pure\n        virtual\n        override\n        returns (uint amountIn)\n    {\n        return PancakeLibrary.getAmountIn(amountOut, reserveIn, reserveOut);\n    }\n\n    function getAmountsOut(uint amountIn, address[] memory path)\n        public\n        view\n        virtual\n        override\n        returns (uint[] memory amounts)\n    {\n        return PancakeLibrary.getAmountsOut(factory, amountIn, path);\n    }\n\n    function getAmountsIn(uint amountOut, address[] memory path)\n        public\n        view\n        virtual\n        override\n        returns (uint[] memory amounts)\n    {\n        return PancakeLibrary.getAmountsIn(factory, amountOut, path);\n    }\n}\n",
  "sourcePath": "/Users/kakao/Code/pancake-swap-core/contracts/PancakeRouter.sol",
  "compiler": {
    "name": "solc",
    "version": "0.6.12+commit.27d51765.Emscripten.clang"
  },
  "schemaVersion": "3.3.4",
  "updatedAt": "2021-10-14T08:09:48.405Z",
  "networkType": "ethereum",
  "devdoc": {
    "kind": "dev",
    "methods": {},
    "version": 1
  },
  "userdoc": {
    "kind": "user",
    "methods": {},
    "version": 1
  }
}